:100000000C946E020C94B2020C94B2020C94B202E4
:100010000C94B2020C94B2020C94B2020C94B20290
:100020000C94B2020C94B2020C94D70C0C94A90D4F
:100030000C94B2020C94B2020C94B2020C94B20270
:100040000C94B2020C9473220C94B2020C94B2027F
:100050000C94B2020C94021C0C94B2020C94B202E6
:100060000C94B2020C94B2020C94B2020C94B20240
:100070000C94B2020C94B2020C94B2020C94B20230
:100080000C94B2020C94B2020C94B2020C94B20220
:100090000C94B2020C94B2020C94B2020C94B20210
:1000A0000C94B2020C94B2020C94B202160E380EEA
:1000B000260F380E260F7D0EA00E260FF50E080F08
:1000C000F411F411311231127412B212CB14CB1498
:1000D000CB12CB14CC13CC139F14CB14CB14B6146B
:1000E00001E30119021902E30001E301060206021D
:1000F000E3000000F0A229002B00E000E100003046
:1001000000001E00140004001D00E20001001F009A
:100110001A0016001B00E3022C0020000800070054
:1001200006002F00E300210015000900190030002F
:100130000100220017000A00050000002C04340012
:10014000013000002D0000000100350002300000E9
:100150002E000000010023001C000B001100000015
:100160000154240018000D00100050002C1125002F
:100170000C000E0036005100E700260012000F00B0
:10018000370052002C0027001300338238004F0044
:100190002C1831002A002800E100010000000100B5
:1001A0000100010001000100000001000100010048
:1001B00001000100E2000100010001000100010056
:1001C000010001000100010001000100E000010048
:1001D0000100010001000100E30001000100010035
:1001E00001000000E6000100010000000100000025
:1001F00001000100010000000100000001000100F9
:1002000001000100010000000100010001000100E7
:1002100001000100E70001000100010001000100F0
:10022000E400010001000100010001002C000100B8
:100230000100010001000100E600010001000100D1
:1002400001000100000001000100010001000100A7
:1002500000003A000100F2000100010001003B0033
:10026000F000F1000100010001003C000100F3007A
:100270000100F40001003D00010001000100F50053
:1002800001003E00010001000100000001003F00EC
:10029000010000000100000001004000010000001A
:1002A00001000000010041000100500001000000B9
:1002B00000504200010051000100AC000100430069
:1002C000010052000100AA00B600440001004F00E6
:1002D0000100A90001004500010001000100AB0080
:1002E000010001000100AE000100A800000016039B
:1002F0004500720067006F0044006F007800200026
:1003000045005A00000016034500720067006F00A8
:1003100044006F007800200045005A0000000403EC
:10032000090409026D00040100A0FA09040000019B
:1003300003010100092111010001223F000705818D
:100340000308000A09040100010301020009211148
:10035000010001224D000705820308000A0904027A
:1003600000010300000009211101000122360007ED
:1003700005830308000A09040300010300000009C3
:100380002111010001223900070584031000011228
:1003900001100100000008EDFE071301000102003A
:1003A0000105010906A101050719E029E715002546
:1003B0000195087501810205081901290595057542
:1003C000019102950175039101050719002977151F
:1003D000002501957875018102C005010980A10100
:1003E000850216010026B7001A01002AB700751011
:1003F00095018100C0050C0901A1018503160100CA
:10040000269C021A01002A9C02751095018100C0E9
:1004100005010902A1010901A10005091901290528
:10042000150025019505750181029501750381016E
:100430000501093009311581257F9502750881066E
:1004400009381581257F950175088106050C0A3844
:10045000021581257F950175088106C0C005010937
:1004600006A101050719E029E71500250195087582
:100470000181029501750881010508190129059579
:100480000575019102950175039101050719002970
:10049000FF150025FF950675088100C000000000CB
:1004A00000000000000000010204060A0F17202CC3
:1004B0003A4A5D71879DB3C7DAE9F5FCFFFCF5E9BF
:1004C000DAC7B39D87715D4A3A2C20170F0A0604DC
:1004D00002010000000000000000000011241FBE07
:1004E000CFEFDAE0DEBFCDBF04B603FE24C08091BB
:1004F000F0019091F101A091F201B091F3018730E8
:10050000904BA740B04BB9F41092F0011092F1015A
:100510001092F2011092F30114BE84B7877F84BF5A
:1005200088E10FB6F89480936000109260000FBECF
:10053000E0E0FFE3099511E0A0E0B1E0E4E7F8E4D2
:1005400002C005900D92A433B107D9F711E0A4E3DE
:10055000B1E001C01D92A03FB107E1F70E941B0A64
:100560000C9438240C940000FC016130D9F018F090
:100570006230D9F15BC08281882339F00E94CC1BA4
:10058000909335018093340151C080913401909152
:1005900035010E94D81B873991050CF04AC080EEC6
:1005A00090E008958281882351F00E94CC1B9093A3
:1005B00035018093340181EE0E94881037C080910C
:1005C0003401909135010E94D81B863991055CF465
:1005D00086E20E94881086E20E94501187E20E9403
:1005E000881087E218C081EE1FC082818111DDCFA3
:1005F00080913401909135010E94D81B8639910574
:1006000094F78FE20E9488108FE20E94501180E3DD
:100610000E94881080E30E94501181EE0E945011C8
:1006200080E50E94881080E50E94501180E090E0F3
:10063000089589EE90E0089508956091B301709156
:10064000B4018091B5019091B6010E942E1B56987D
:100650005E9825982D9826982E9827982F98823066
:1006600039F0833041F0813041F4259A2D9A089574
:10067000269A2E9A0895279A2F9A08950C941D036E
:1006800056985E9825982D9826982E9827982F98FA
:100690008FEF90E0909389008093880090938B0077
:1006A00080938A0090938D0080938C00259A2D9AD8
:1006B0002FEF80E792E0215080409040E1F700C0AA
:1006C0000000269A2E9A2FEF80E792E0215080407A
:1006D0009040E1F700C00000279A2F9A2FEF80E7A3
:1006E00092E0215080409040E1F700C00000259842
:1006F0002D982FEF80E792E0215080409040E1F765
:1007000000C0000026982E982FEF80E792E021503D
:1007100080409040E1F700C0000027982F9856983D
:100720005E9825982D9826982E9827982F980895AA
:1007300089EA8093800089E08093810024982C9836
:100740003F988AB18F748AB96E98479A8BB1806B43
:100750008BB9769A0E9440030C941C0380E280932C
:1007600000018091360181110EC00E94FD0381E0DD
:10077000809336012FEF83ED90E32150804090402D
:10078000E1F700C0000080E40E94030480930001B0
:1007900081112EC00E942D0480930001811128C078
:1007A0000E942D0480930001811122C08FE30E94DA
:1007B0002D048093000181111BC00E94250480E458
:1007C0000E94030480930001811112C08CE00E94FA
:1007D0002D048093000181110BC00E942D04809391
:1007E0000001811105C08FE30E942D048093000158
:1007F0000E9425048091000108951092B9008AE0BA
:100800008093B800089594EA9093BC009091BC0046
:1008100097FFFCCF9091B900987F983021F09031EC
:1008200011F081E008958093BB0084E88093BC00C0
:100830008091BC0087FFFCCF8091B900887F883110
:1008400011F0803471F780E0089584E98093BC0052
:100850008091BC0084FDFCCF08958093BB0084E8A8
:100860008093BC008091BC0087FFFCCF9091B900C1
:10087000987F81E0983209F480E0089584E88093BD
:10088000BC008091BC0087FFFCCF8091BB00089525
:1008900080910001811115C080E40E9403048093BF
:1008A000000181110CC082E10E942D04809300019F
:1008B000811105C08FEF0E942D04809300010E94DA
:1008C000250484B1807F84B985B1807F85B98AB1E0
:1008D000837F8AB98BB1837F8BB93E984698089500
:1008E0000E94AE03809300010E94480480B38C7084
:1008F00080BB81B3836F81BBA8E3B1E0E6E4F1E0A4
:100900008EE08E0F11921D928E13FCCF0C949803E3
:10091000BF92CF92DF92EF92FF920F931F93CF93EC
:10092000DF9380910001882379F0809137018F5FF8
:1009300080933701811108C00E94AE0380930001AB
:10094000811102C00E94400308E311E0C0E0D0E042
:10095000DD24D39482E0C82EEE24E394F12CC7303A
:10096000D10500F580910001811164C080E40E94EE
:10097000030480930001811112C082E10E942D04C2
:100980008093000181110BC0C7010C2E01C0880F9C
:100990000A94EAF780950E942D04809300010E943A
:1009A000250448C0CA30A1F028F4C83059F0C93035
:1009B00061F005C0CC3089F070F0CD3089F0209A1C
:1009C000289810C0219A29980DC0229A2A980AC006
:1009D000239A2B9807C0529A01C0539A5B9802C081
:1009E0003E9A469890EA9A95F1F79FB1799902C09C
:1009F00082E001C080E091709D25982B7C9902C017
:100A000084E001C080E0892B7D9902C038E001C0FC
:100A100030E0832B7E9902C020E101C020E0822BD0
:100A20009FB19095991F9927991F9295990F907E44
:100A3000892B0FC080910001811149C080E40E9480
:100A4000030480930001882379F1B12C0E942504CE
:100A50008B2DF8019081981719F08083C0920101C5
:100A60000E94480421960F5F1F4FCE30D10509F038
:100A700076CF80910101882361F18150809301013B
:100A8000882339F08FE99FE00197F1F700C000005B
:100A900020C0A6E4B1E0E8E3F1E0CF01825F9191EC
:100AA0009D938E13FCCF15C083E10E942D0480938B
:100AB00000018111CACF81E40E94030480930001E8
:100AC0008111C3CF0E943E04B82EB094BFCF80E006
:100AD000C0CF0E943E0381E0DF91CF911F910F9123
:100AE000FF90EF90DF90CF90BF900895E82FF0E057
:100AF000EA5BFE4F808108950895089596E0799FFE
:100B0000F001112494E5899FE00DF11D1124E60FF9
:100B1000F11DEE0FFF1FEA50FF4F8591949108954C
:100B2000880F991FFC01EE58F0408591949108952B
:100B3000880F991FFC01EE50FF4F85919491089505
:100B40000F931F93CF93DF93EC018115904350F5E2
:100B5000C11580E2D80708F0B3C0CB3BD10590F4B3
:100B6000C83AD10508F05AC0C53AD10508F04BC0C3
:100B7000C430D10508F0BBC1219709F0B5C101E02F
:100B800010E0F5C1CF3FD10511F008F0B0C1C03F72
:100B9000D10508F092C0CE01805E9109089708F453
:100BA000A6C1A2C1C11591E5D907A8F4C23020E5BC
:100BB000D20708F09EC0C11580E5D80709F485C0AA
:100BC00008F091C0C11520E4D20708F08DC1DD27DF
:100BD0008E01106CCCC1C11580E8D80758F4C1153E
:100BE00090E7D90708F07CC1C11520E6D20708F4C8
:100BF00022C17AC1C11580E9D80708F075C1DF703C
:100C00008E01106AB4C1C53AD10509F472C1C63A61
:100C1000D10509F071C102E810E4A9C1C83AD105B3
:100C200009F46DC1C93AD10509F46CC1CA3AD105BC
:100C300009F46BC1CB3AD10509F46AC1CC3AD105AC
:100C400009F469C1CD3AD10509F468C1C03BD105A9
:100C500009F467C1CE3AD10509F466C1CF3AD1058E
:100C600009F465C1C13BD10509F464C1C23BD1059A
:100C700009F463C1C33BD10509F462C1C43BD1058A
:100C800009F461C1C53BD10509F460C1C63BD1057A
:100C900009F45FC1C73BD10509F45EC1C83BD1056A
:100CA00009F45DC1C93BD10509F45CC1CA3BD1055A
:100CB00009F45BC100E014E45AC18E01106557C10C
:100CC000CE019F700E94980553C10E94EF149FEFC0
:100CD00024E38CE0915020408040E1F700C0000008
:100CE0000E94271C44C18091CF0181608093CF0175
:100CF0003EC10E94D01D811102C00E94B61D0E94FB
:100D0000ED1D90E09093F0018093EF01C23090E5EB
:100D1000D90721F48091EF01816086C0C43020E5BD
:100D2000D20721F48091EF0182607EC0C63080E559
:100D3000D80721F48091EF01846076C0C83090E537
:100D4000D90719F48091EF0127C0CA3020E5D207F6
:100D500021F48091EF01806167C0CC3080E5D80735
:100D600021F48091EF0180625FC0CE3090E5D90719
:100D700021F48091EF01806457C0C03120E5D20793
:100D800021F48091EF0180684FC0C23180E5D8071F
:100D900029F48091EF018460886046C0C33090E5FB
:100DA000D90721F48091EF018E7F3EC0C53020E548
:100DB000D20721F48091EF018D7F36C0C73080E5E6
:100DC000D80721F48091EF018B7F2EC0C93090E5C8
:100DD000D90719F48091EF0126C0CB3020E5D20766
:100DE00021F48091EF018F7E1FC0CD3080E5D807C0
:100DF00021F48091EF018F7D17C0CF3090E5D907A6
:100E000021F48091EF018F7B0FC0C13120E5D20723
:100E100021F48091EF018F7707C0C331D04531F4C1
:100E20008091EF018B7F877F8093EF018091EF01AD
:100E30000E94F11D9CC08D2F99278F7099278130BA
:100E40009105D9F49E012370332702C0880F991FA2
:100E50002A95E2F79C688E0144E0000F111F4A9525
:100E6000E1F700271370802B912B53E0CC0FDD1F8F
:100E70005A95E1F7C076DD272FC08230910531F415
:100E8000DC2FCC278E01016F106A71C08330910571
:100E900069F4CE018370992701E010E002C0000FD1
:100EA000111F8A95E2F7C8019C680FC0049709F0EA
:100EB0005EC0CE018370992701E010E002C0000FF0
:100EC000111F8A95E2F7C8019A6823E0CC0FDD1F55
:100ED0002A95E1F7C07ED7708C010C2B1D2B47C0E3
:100EE000DF708E01106243C000E010E040C08E0150
:100EF0003EC001E810E43BC003E810E438C002EE55
:100F000014E435C009EE14E432C00AEE14E42FC034
:100F100005EB14E42CC006EB14E429C007EB14E441
:100F200026C00CEC14E423C00DEC14E420C003E84C
:100F300015E41DC00AE815E41AC002E915E417C05B
:100F400004E915E414C001E216E411C003E216E45A
:100F50000EC004E216E40BC005E216E408C006E287
:100F600016E405C007E216E402C00AE216E4C8016E
:100F7000DF91CF911F910F91089596E0799FF00135
:100F8000112494E5899FE00DF11D1124E60FF11D58
:100F9000EE0FFF1FEA50FF4F85919491803E91051F
:100FA000E0F4803C910558F58133910509F46FC058
:100FB00048F48932910509F463C08A32910509F435
:100FC0006DC072C089339105E9F082389105D1F086
:100FD0008533910509F44DC067C0833E910581F1C9
:100FE00038F4803E9105B9F0823E9105D9F05CC09D
:100FF000863E910561F1873E9105A1F155C00E94A1
:10100000900508952091EF0120FD02C021FF4CC002
:1010100080EE90E049C08091EF0180FFF9CF89E335
:1010200090E042C08091EF0182FF0EC08091EF01FD
:1010300084FF03C080E090E037C083EE90E034C0CE
:101040008091EF0182FFF2CF82EE90E02DC080917F
:10105000EF0183FF0BC08091EF0184FDEBCF87EEA2
:1010600090E022C08091EF0183FFF5CF86EE90E003
:101070001BC08091EF0185FF07C089E290E014C09A
:101080008091EF0185FFF9CF85E390E00DC080915D
:10109000EF0186FF07C08AE290E006C08091EF0171
:1010A00086FFF9CF81E390E00E94A005089508959E
:1010B0000C945708809164010895CF93DF9300D07A
:1010C0001F92CDB7DEB79C018091E601843019F5FF
:1010D00093E099833B832A839093E9008FEF90916B
:1010E000E800815095FD06C095ED9A95F1F7000056
:1010F0008111F5CF8091E80085FF0DC040E050E000
:1011000063E070E0CE0101960E94C70A8091E8007A
:101110008E778093E8000F900F900F90DF91CF9122
:101120000895CF93DF9300D01F92CDB7DEB7209103
:10113000E601243021F522E029839B838A8383E022
:101140008093E9008FEF9091E800815095FD06C0F3
:1011500095ED9A95F1F700008111F5CF8091E800A7
:1011600085FF0DC040E050E063E070E0CE010196E5
:101170000E94C70A8091E8008E778093E8000F9064
:101180000F900F90DF91CF9108952091E6012430C8
:10119000F1F422E02093E9002FEF3091E800215094
:1011A00035FD06C035ED3A95F1F700002111F5CF78
:1011B0002091E80025FF0BC040E050E065E070E0C2
:1011C0000E94C70A8091E8008E778093E800089516
:1011D000CF93DF93EC019091E601943009F046C083
:1011E00080910C018823D9F080910D018823B9F0FA
:1011F0009093E9008FEF9091E800815095FD06C033
:1012000095E19A95F1F700008111F5CF8091E80002
:1012100085FF2CC040E050E060E170E017C081E045
:101220008093E9008FEF9091E800815095FD06C012
:1012300095ED9A95F1F700008111F5CF8091E800C6
:1012400085FF14C040E050E068E070E0CE010E94ED
:10125000C70A8091E8008E778093E80080E1FE0164
:10126000A4E5B1E001900D928A95E1F7DF91CF916D
:1012700008958091E501811109C00E945C0C0E94D3
:10128000B90C8091E20084608093E200089510928E
:10129000E501089508950C9460220E94BD1B0E94F0
:1012A00066220E945F0F0C94580842E061EC81E0D6
:1012B0000E94D60B42E061EC82E00E94D60B42E035
:1012C00061EC83E00E94D60B42E161EC84E00C9477
:1012D000D60B8091E801833009F455C030F4813099
:1012E00071F0823009F48EC008958A3009F47AC012
:1012F0008B3009F460C0893009F09CC020C0809117
:10130000E701813A09F096C08091E800877F8093D9
:10131000E8008091EB019091EC01892B21F460E1D0
:1013200084E591E003C060E080E090E070E00E941E
:10133000120B8091E8008B778093E80008958091EC
:10134000E701813209F076C08091EB019091EC01C8
:10135000009719F0039709F06DC08091E800877F2E
:101360008093E8008091E80082FD05C08091E6014D
:101370008111F8CF5FC08091F1008093640180916A
:10138000E8008B7753C08091E701813A09F052C0A1
:101390008091EB019091EC01892B09F04BC0809179
:1013A000E800877F8093E8008091E80080FFFCCF11
:1013B00080910C0136C08091E7018132D9F580918E
:1013C000EB019091EC01892BA9F58091E800877FD2
:1013D0008093E8000E940B0C8091E90180930C013E
:1013E0000C94EF148091E701813221F58091E8009F
:1013F000877F8093E8000E940B0C8091EA01809324
:10140000650108958091E701813AA1F48091E80097
:10141000877F8093E8008091E80080FFFCCF809177
:1014200065018093F1008091E8008E778093E80059
:101430000C940B0C089584B7877F84BF88E10FB6A6
:10144000F89480936000109260000FBE90E080E8F6
:101450000FB6F89480936100909361000FBE0E94D4
:10146000AE0F0E945C0C0E94B90C8091E200846077
:101470008093E20078940E943F0F0E94B00F82E0B8
:1014800091E00E945A0F0E944E228091E601853021
:1014900069F40E947E1B8091E4018823B1F30E94CD
:1014A000A91B882391F30E94B10AEFCF0E94B60FC7
:1014B000ECCF292F332723303105C9F064F42130D4
:1014C000310581F02230310509F043C08DE690E00E
:1014D00022E233E042C021323105F1F022323105FF
:1014E00041F137C082E190E02FE833E036C0992720
:1014F0008130910541F08230910541F0892B49F509
:10150000EEE1F3E005C0E6E0F3E002C0EEEEF2E06B
:10151000849190E09F0121C06430D8F4E62FF0E080
:10152000EE0FFF1FEE5DFE4F2081318189E090E0DC
:1015300014C0643070F470E0FB01EE0FFF1FE65E34
:10154000FE4F20813181FB01EA5EFE4F808190E0F9
:1015500004C080E090E020E030E0FA013183208395
:10156000089580E189BD82E189BD09B400FEFDCF07
:101570008091D8008F7D8093D8008091E0008260B8
:101580008093E0008091E00081FDFCCF0895CF9230
:10159000DF92EF92FF920F931F93CF93DF93EC01B3
:1015A0008B016A010E942A0C811133C0C114D1043D
:1015B00039F0F60180819181081B190BC80FD91FE2
:1015C000E12CF12C0115110519F18091E80085FD40
:1015D00016C08091E8008E778093E800C114D10492
:1015E00049F0F60180819181E80EF91EF182E082D6
:1015F00085E00FC00E942A0C882321F30AC089913C
:101600008093F10001501109FFEFEF1AFF0ADACFC2
:1016100080E0DF91CF911F910F91FF90EF90DF90CD
:10162000CF9008952091ED013091EE0126173707F4
:1016300048F06115710539F42091E8002E77209368
:10164000E80001C0B90140E061157105A9F12091E0
:10165000E601222309F443C0253009F442C0209159
:10166000E80023FD40C02091E80022FD32C0209117
:10167000E80020FFE9CF4091F3002091F20030E034
:10168000342BFC01CF016115710559F0283031056B
:1016900040F481918093F100615071092F5F3F4FB9
:1016A000F1CF41E02830310509F040E02091E80019
:1016B0002E772093E800C8CF4111C9CF0AC080918E
:1016C000E601882361F0853061F08091E80083FDB8
:1016D0000AC08091E80082FFF2CF80E0089582E0A6
:1016E000089583E0089581E008952091ED013091FF
:1016F000EE012617370748F06115710539F420917E
:10170000E8002E772093E80001C0B901FC0120E039
:101710006115710591F18091E601882309F440C0BB
:10172000853009F43FC08091E80083FD3DC0809181
:10173000E80082FD2FC08091E80080FFE9CF209172
:10174000F3008091F20090E0922B6115710559F041
:101750008830910540F424912093F1003196615036
:1017600071090196F2CF21E0089709F020E08091FD
:10177000E8008E778093E800CBCF2111CCCF0AC050
:101780008091E601882361F0853061F08091E80066
:1017900083FD0AC08091E80082FFF2CF80E00895C7
:1017A00082E0089583E0089581E00895982F9730AE
:1017B00058F59093E900981739F07091EC0020915A
:1017C000ED005091F00003C0242F762F50E021FF50
:1017D00019C03091EB003E7F3093EB003091ED006B
:1017E0003D7F3093ED003091EB0031603093EB00A2
:1017F0007093EC002093ED005093F0002091EE00E8
:1018000027FF07C09F5FD3CF8F708093E90081E0EF
:10181000089580E008958091E70187FF11C08091CD
:10182000E80082FD05C08091E6018111F8CF11C06A
:101830008091E8008B770BC08091E601882349F006
:101840008091E80080FFF8CF8091E8008E77809348
:10185000E80008952091E4003091E50095E640917C
:10186000EC00842F817040FF22C08091E80080FD51
:101870001CC08091E601882391F0853091F0809121
:10188000EB0085FD10C04091E4005091E500421747
:10189000530729F39A01915011F784E0089582E0EB
:1018A000089583E0089581E0089580E008954091CF
:1018B000E80042FFDECF08950E94CA0C0E94D20CBD
:1018C000E0EEF0E0808181608083E8EDF0E08081EF
:1018D0008F77808319BCA7EDB0E08C918E7F8C93BD
:1018E00080818F7E80831092E50108950F931F936E
:1018F000CF93DF930E94CA0C0E94D20CC8EDD0E0B7
:1019000088818F77888388818068888388818F7DAC
:10191000888319BC1092E6011092E2011092E40152
:101920001092E30100EE10E0F80180818B7F80834C
:1019300088818160888342E060E080E00E94D60B6D
:10194000E1EEF0E080818E7F8083E2EEF0E0808146
:1019500081608083808188608083F80180818E7FB0
:101960008083888180618883DF91CF911F910F915F
:101970000895E8EDF0E080818F7E8083E7EDF0E070
:1019800080818160808384E082BF81E08093E50173
:101990000C94760CE8EDF0E080818E7F80831092CD
:1019A000E20008951092DA001092E10008951F926B
:1019B0000F920FB60F9211242F933F934F935F9383
:1019C0006F937F938F939F93AF93BF93EF93FF9307
:1019D0008091E10082FF0BC08091E20082FF07C08E
:1019E0008091E1008B7F8093E1000E943E0F809107
:1019F000DA0080FF1FC08091D80080FF1BC080915B
:101A0000DA008E7F8093DA008091D90080FF0DC0CC
:101A100080E189BD82E189BD09B400FEFDCF81E08E
:101A20008093E6010E94390905C019BC1092E601B5
:101A30000E9447098091E10080FF19C08091E20077
:101A400080FF15C08091E2008E7F8093E20080913C
:101A5000E20080618093E2008091D80080628093F0
:101A6000D80019BC85E08093E6010E944B09809163
:101A7000E10084FF30C08091E20084FF2CC080E14F
:101A800089BD82E189BD09B400FEFDCF8091D800F7
:101A90008F7D8093D8008091E1008F7E8093E1005C
:101AA0008091E2008F7E8093E2008091E20081606D
:101AB0008093E2008091E201882311F084E007C066
:101AC0008091E30087FD02C081E001C083E0809344
:101AD000E6010E944D098091E10083FF29C08091B9
:101AE000E20083FF25C08091E100877F8093E100C1
:101AF00082E08093E6011092E2018091E1008E7F06
:101B00008093E1008091E2008E7F8093E2008091DB
:101B1000E20080618093E20042E060E080E00E94A9
:101B2000D60B8091F00088608093F0000E944A09F3
:101B3000FF91EF91BF91AF919F918F917F916F91A5
:101B40005F914F913F912F910F900FBE0F901F907B
:101B500018951F920F920FB60F9211242F933F9357
:101B60004F935F936F937F938F939F93AF93BF93A5
:101B7000CF93DF93EF93FF93C091E900CF708091F3
:101B8000EC00D82FD17080FDD0E81092E900809150
:101B9000F000877F8093F00078940E94ED0D109202
:101BA000E9008091F00088608093F000CD2BCF7029
:101BB000C093E900FF91EF91DF91CF91BF91AF9179
:101BC0009F918F917F916F915F914F913F912F9155
:101BD0000F900FBE0F901F9018951F93CF93DF9318
:101BE000CDB7DEB7AA970FB6F894DEBF0FBECDBF54
:101BF000E7EEF1E088E08E0F9091F10091938E1363
:101C0000FBCF0E9469098091E80083FF1FC180918A
:101C1000E7019091E801492F50E04A30510508F062
:101C200015C1FA01EA5AFF4F0C94E823803881F07D
:101C3000823809F00BC18091EB018F708093E9002D
:101C40008091EB0085FB882780F91092E90006C09F
:101C50008091E3019091E401911182609091E800FC
:101C6000977F9093E8008093F1001092F100C8C034
:101C7000282F2D7F09F0EAC0882319F0823061F007
:101C8000E5C08091E901813009F0E0C0933009F0AE
:101C900080E08093E4012BC08091E901811127C08D
:101CA0008091EB018F7009F4D1C08093E9002091FD
:101CB000EB0020FF1CC0933021F48091EB00806288
:101CC00014C09091EB0090619093EB0021E030E024
:101CD000A90102C0440F551F8A95E2F74093EA001C
:101CE0001092EA008091EB0088608093EB001092E4
:101CF000E9008091E800877F86C08111A7C010911C
:101D0000E9011F778091E3008078812B8093E300C5
:101D10008091E800877F8093E8000E940B0C8091FF
:101D2000E80080FFFCCF8091E30080688093E300AF
:101D3000111102C082E001C083E08093E60186C0F9
:101D40008058823008F082C08091E9019091EA01C8
:101D50008C3D53E0950779F583E08A838AE2898395
:101D60004FB7F894DE01139620E03EE051E2E32FF6
:101D7000F0E050935700E49120FF03C0E295EF702C
:101D80003F5FEF708E2F90E0EA3010F0C79601C0F1
:101D9000C0968D939D932F5F243149F74FBF80915B
:101DA000E800877F8093E8006AE270E0CE01019648
:101DB0000E94120B14C0AE014F5F5F4F6091EB01A8
:101DC0000E94590ABC01892B09F440C09091E80097
:101DD000977F9093E80089819A810E94750B80918A
:101DE000E8008B778093E80031C0803879F58091E6
:101DF000E800877F8093E8008091E2018093F10002
:101E00008091E8008E778093E8000E940B0C1EC042
:101E100081111CC09091E9019230C0F48091E800DA
:101E2000877F8093E8009093E2010E940B0C8091E1
:101E3000E201811106C08091E30087FD02C081E0CC
:101E400001C084E08093E6010E9455098091E8007A
:101E500083FF0AC08091E800877F8093E80080912B
:101E6000EB0080628093EB00AA960FB6F894DEBF79
:101E70000FBECDBFDF91CF911F9108950895CF93ED
:101E80008091E6018823A1F0C091E900CF70909184
:101E9000EC00892F817090FD80E8C82B1092E9003A
:101EA0008091E80083FD0E94ED0DCF70C093E900A2
:101EB000CF91089590936B0180936A010895E0910A
:101EC0006A01F0916B01309721F00190F081E02DD3
:101ED000099480E00895E0916A01F0916B013097D8
:101EE00021F00280F381E02D09940895E0916A01C8
:101EF000F0916B01309721F00480F581E02D099479
:101F0000089520916801309169018217930771F05B
:101F10009093690180936801E0916A01F0916B01EF
:101F2000309721F00680F781E02D099408952091E3
:101F30006601309167018217930771F090936701F2
:101F400080936601E0916A01F0916B01309721F076
:101F50000084F185E02D0994089508950C94AD0F47
:101F60000E94C31B0E9470040C94891CCF92DF92C4
:101F7000EF92FF920F931F93CF93DF93CDB7DEB70E
:101F80002B970FB6F894DEBF0FBECDBF0E9488041A
:101F90008DE6C82E81E0D82E00E010E0E02E802FE4
:101FA0000E947605F60141916F01F42EF826B1F4F6
:101FB0000F5F1F4F0E30110589F78FEF89838A83DA
:101FC0001B820E94CC1B8160782F9D838C8349816A
:101FD0005A816B818D810E94591040C09091CF0130
:101FE00091FF04C08B870E947C058B8520E030E048
:101FF0004F2D50E0922FBA01022E02C075956795C1
:102000000A94E2F760FF24C02E83EF8221E030E0E3
:10201000690102C0CC0CDD1C9A95E2F790E08C219E
:102020009D21892B09F420E028870E94CC1B816028
:10203000782F9A8789874E815F8168858A850E947B
:102040005910F801E359FE4F8081C826C08206C0AE
:102050002F5F3F4F2630310569F6AACF0E94701FCF
:1020600010916C010E945F0F1817A1F00E945F0F82
:1020700080936C012B960FB6F894DEBF0FBECDBFD8
:10208000DF91CF911F910F91FF90EF90DF90CF9054
:102090000C9458082B960FB6F894DEBF0FBECDBF38
:1020A000DF91CF911F910F91FF90EF90DF90CF9034
:1020B0000895CF93DF93CDB7DEB72B970FB6F89483
:1020C000DEBF0FBECDBF4F83588769877A878B8766
:1020D000DE01119686E0FD0111928A95E9F785E00F
:1020E000FE01379601900D928A95E1F749815A8158
:1020F0006B817C818D819E810E9489172B960FB602
:10210000F894DEBF0FBECDBFDF91CF910895089543
:10211000CF93882309F4C2C0C82F823859F40E9493
:102120005F0F81FDBBC089E30E94321A0E94FF1A33
:1021300089E30CC0833879F40E945F0F80FDAEC044
:1021400083E50E94321A0E94FF1A83E50E94741AE6
:10215000CF910C94FF1A843859F40E945F0F82FDCE
:102160009DC087E40E94321A0E94FF1A87E4EECFD6
:102170008CEF8C0F813A48F48C2F0E94B32181118F
:102180008DC08C2F0E94321AE3CF80E28C0F8830F2
:1021900048F4C77081E001C0880FCA95EAF70E9431
:1021A000B81AD6CF8BE58C0F833078F4C53A29F076
:1021B000C63A31F083E890E005C081E890E002C0C3
:1021C00082E890E0CF910C94810F88E58C0F8331E9
:1021D00008F064C0C83A39F1C93A41F1CA3A49F144
:1021E000CB3A51F1CC3A59F1CD3A61F1C03B69F1AA
:1021F000CE3A71F1CF3A79F1C13B81F1C23B89F11D
:10220000C33B91F1C43B99F1C53BA1F1C63BA9F198
:10221000C73BB1F1C83BB9F1C93BC1F1CA3BC9F1F8
:1022200080E090E038C082EE90E035C089EE90E02A
:1022300032C08AEE90E02FC085EB90E02CC086EB98
:1022400090E029C087EB90E026C08CEC90E023C0A2
:102250008DEC90E020C083E891E01DC08AE891E019
:102260001AC082E991E017C084E991E014C081E2CC
:1022700092E011C083E292E00EC084E292E00BC0D3
:1022800085E292E008C086E292E005C087E292E033
:1022900002C08AE292E0CF910C94970FCF910895FB
:1022A000882309F44BC0823859F40E945F0F81FFE4
:1022B00045C089E30E94321A0E94FF1A89E30CC0CC
:1022C000833871F40E945F0F80FF38C083E50E945D
:1022D000321A0E94FF1A83E50E94741A0C94FF1AA6
:1022E000843859F40E945F0F82FF28C087E40E945F
:1022F000321A0E94FF1A87E4EFCF9CEF980F913AB1
:1023000058F390E2980F983050F4877091E001C034
:10231000990F8A95EAF7892F0E94BE1ADFCF9BE5B5
:10232000980F933020F480E090E00C94810F885A4D
:10233000833120F480E090E00C94970F0895882377
:1023400021F00E94B81A0C94FF1A0895882321F0F6
:102350000E94BE1A0C94FF1A0895BF92CF92DF928A
:10236000EF92FF920F931F93CF93DF9300D000D093
:1023700000D0CDB7DEB725E0FC01DE01119601905B
:102380000D922A95E1F7FC01D0801181028125810F
:1023900022952F7043815481452B09F4FCC21F3FC5
:1023A00021F4FFEFDF1609F4F6C27C012E830E94B0
:1023B0008710D9821A8369817A81802F0E942E1A10
:1023C000182FB92E0E94E3190E94AA182E8100230B
:1023D00019F00E94D51A2E81EB2DE295EF70F0E0F6
:1023E000E05AFF4F0C94E8238B2D807F9B2D9F702C
:1023F000F92E882319F0F29480EFF822002389F057
:10240000FF2009F475C280E2810F883020F48F2DFF
:102410000E94B81A03C08F2D0E94C81A0E94FF1A8A
:1024200067C2812F0E945011FF2009F4B4C2105ED0
:102430008F2D183018F40E94BE1A02C00E94CE1AC6
:1024400026960FB6F894DEBF0FBECDBFDF91CF91B9
:102450001F910F91FF90EF90DF90CF90BF900C9461
:10246000FF1A3B2D307F8B2D8F70303211F082950B
:10247000807F112319F0113021F12CC00023B9F015
:10248000222309F4A0C1213009F09DC126960FB680
:10249000F894DEBF0FBECDBFDF91CF911F910F919A
:1024A000FF90EF90DF90CF90BF900C94E81A22231A
:1024B00019F0213009F46FC28E830E94EB1A8E81CD
:1024C00096C1002321F0223008F065C27CC12111A1
:1024D00062C28DC1002321F0222309F474C108C215
:1024E000222309F484C119C22B2D26952695237029
:1024F00030E02115310521F021303105D1F04BC2FA
:10250000002321F0812F9B2D937002C080E090E08A
:1025100026960FB6F894DEBF0FBECDBFDF91CF91E8
:102520001F910F91FF90EF90DF90CF90BF900C9490
:10253000810F002321F0812F9B2D937002C080E03A
:1025400090E026960FB6F894DEBF0FBECDBFDF91A8
:10255000CF911F910F91FF90EF90DF90CF90BF90A0
:102560000C94970F812F002319F00E94781E02C04F
:102570000E94E01E26960FB6F894DEBF0FBECDBFB8
:10258000DF91CF911F910F91FF90EF90DF90CF904F
:10259000BF900C94651F8B2D837009F07BC00111D7
:1025A000FAC1812F829586958770880F880F912FA9
:1025B0009F70C92ED12CE12CF12C082E04C0CC0C1C
:1025C000DD1CEE1CFF1C0A94D2F714FF12C04FE072
:1025D00050E060E070E004C0440F551F661F771F95
:1025E0008A95D2F7CB01BA01609570958095909548
:1025F00003C060E070E0CB012B2D2695269523705B
:10260000422F50E042305105D9F04330510569F175
:102610006C297D298E299F294130510551F126963B
:102620000FB6F894DEBF0FBECDBFDF91CF911F91E3
:102630000F91FF90EF90DF90CF90BF900C94D11846
:102640006C297D298E299F2926960FB6F894DEBF26
:102650000FBECDBFDF91CF911F910F91FF90EF90F3
:10266000DF90CF90BF900C94ED180E94D118C70155
:10267000B60126960FB6F894DEBF0FBECDBFDF9130
:10268000CF911F910F91FF90EF90DF90CF90BF906F
:102690000C94B518002319F08B2D817001C086951C
:1026A000882309F478C1812F829586958770880FD9
:1026B000880F912F9F70C92ED12CE12CF12C082E60
:1026C00004C0CC0CDD1CEE1CFF1C0A94D2F714FFD6
:1026D00012C04FE050E060E070E004C0440F551FAE
:1026E000661F771F8A95D2F7CB01BA016095709566
:1026F0008095909503C060E070E0CB012B2D26956E
:1027000026952370422F50E042305105D9F04330D6
:10271000510569F16C297D298E299F294130510588
:1027200051F126960FB6F894DEBF0FBECDBFDF91F4
:10273000CF911F910F91FF90EF90DF90CF90BF90BE
:102740000C94AB196C297D298E299F2926960FB6EA
:10275000F894DEBF0FBECDBFDF91CF911F910F91D7
:10276000FF90EF90DF90CF90BF900C94C7190E941C
:10277000AB19C701B60126960FB6F894DEBF0FBE9F
:10278000CDBFDF91CF911F910F91FF90EF90DF9020
:10279000CF90BF900C948F19103FD1F118F4103ED8
:1027A00050F4A1C0123F09F463C008F44CC0133FB9
:1027B00009F473C098C01F708B2D8F710023A1F096
:1027C0000E942819812F26960FB6F894DEBF0FBEFF
:1027D000CDBFDF91CF911F910F91FF90EF90DF90D0
:1027E000CF90BF900C949F110E944919812F26967B
:1027F0000FB6F894DEBF0FBECDBFDF91CF911F9112
:102800000F91FF90EF90DF90CF90BF900C94A611A6
:102810000023A9F02111BFC08B2D8F7126960FB612
:10282000F894DEBF0FBECDBFDF91CF911F910F9106
:10283000FF90EF90DF90CF90BF900C946E192230F4
:1028400008F0A9C0E9CF0023A9F08B2D8F7126963F
:102850000FB6F894DEBF0FBECDBFDF91CF911F91B1
:102860000F91FF90EF90DF90CF90BF900C942819BC
:10287000002359F38B2D8F7126960FB6F894DEBF87
:102880000FBECDBFDF91CF911F910F91FF90EF90C1
:10289000DF90CF90BF900C944919002399F08B2DB5
:1028A0008F7126960FB6F894DEBF0FBECDBFDF91B5
:1028B000CF911F910F91FF90EF90DF90CF90BF903D
:1028C0000C94131926960FB6F894DEBF0FBECDBF39
:1028D000DF91CF911F910F91FF90EF90DF90CF90FC
:1028E000BF900C9409190023A9F0222309F4ADCF5D
:1028F000812F26960FB6F894DEBF0FBECDBFDF91B5
:10290000CF911F910F91FF90EF90DF90CF90BF90EC
:102910000C948810222309F4ADCF812F26960FB690
:10292000F894DEBF0FBECDBFDF91CF911F910F9105
:10293000FF90EF90DF90CF90BF900C9450114B2DF3
:102940004F70612FC7010E94B40226960FB6F8940B
:10295000DEBF0FBECDBFDF91CF911F910F91FF90D2
:10296000EF90DF90CF90BF900C942D184B2D4F70AF
:10297000612FC70126960FB6F894DEBF0FBECDBFFC
:10298000DF91CF911F910F91FF90EF90DF90CF904B
:10299000BF900C947D0526960FB6F894DEBF0FBE4F
:1029A000CDBFDF91CF911F910F91FF90EF90DF90FE
:1029B000CF90BF9008950E94D51A0E94E51A0E94F8
:1029C000AA1A0E94FF1A0E9416200E94651F80E02A
:1029D00090E00E94810F80E090E00C94970F0E949D
:1029E000C51A0C94DB140E94231A292F22952F70EC
:1029F00030E02C3031054CF42A3031056CF4225093
:102A000031092230310588F407C02C30310549F0F6
:102A10002F30310531F009C0803E48F0803F29F465
:102A200006C093FB882780F9089580E0089581E02F
:102A30000895CF93DF9300D000D01F92CDB7DEB7BB
:102A40000F900F900F900F900F90DF91CF910895FE
:102A5000CF93DF9300D000D000D0CDB7DEB726965D
:102A60000FB6F894DEBF0FBECDBFDF91CF910895B2
:102A70001F93CF93DF93C0917B0116E080917C017F
:102A8000C81799F0D0E01C9FF0011D9FF00D112494
:102A9000E358FE4F40815181628173818481958129
:102AA0000E9428152196C770E9CFDF91CF911F9121
:102AB00008954091AD015091AE016091AF017091C8
:102AC000B0018091B1019091B2010C9428158091D0
:102AD000B20182958F7009F054C08091AF018823B4
:102AE00009F44FC080917B01A0917C016091AD0100
:102AF0007091AE014091B0015091B101B6E08A17DA
:102B000009F43FC090E041155105C1F17F3F11F438
:102B10006F3FA1F1B89FF001B99FF00D1124E35868
:102B2000FE4F218172132AC02081621327C02281A7
:102B3000211124C0238134812417350710F421503A
:102B40003109241B350B283C3105C0F42091B2011A
:102B50002F7020612093B20126E0289FF001299F69
:102B6000F00D1124EE57FE4F80818F7080618083BD
:102B70008DEA91E00E94AD110C9438150196877092
:102B8000BECF0895CF92DF92EF92FF920F931F93E3
:102B9000CF93DF93CDB7DEB762970FB6F894DEBF61
:102BA0000FBECDBF8C0185E0F801DE011D960190BE
:102BB0000D928A95E1F7D8014C9111965C9111978D
:102BC00012966C9112971396CD90DC9014973091D9
:102BD000AD017091AE018091B0019091B10100976B
:102BE00009F46BC17F3F19F43F3F09F466C1E090DF
:102BF000AF01EE2009F4C0C02091B201C816D90679
:102C000028F0F601E81BF90BCF0104C080959095E0
:102C10008C0D9D1DFF24F394883C910578F0F12CD8
:102C2000207F09F0C6C07C2DD98AC88A89890E9474
:102C300019158DEA91E00E94AD11B1C0822F807FFD
:102C400009F046C0751314C0341312C0611110C0CE
:102C50002F7020612093B2010E9459158DEA91E0F6
:102C60000E94AD118091B201D80115968C932EC0AF
:102C7000CD2819F15F3F11F44F3FF9F0F62E6111A5
:102C80001CC080917B0120917C0136E0821709F401
:102C90005AC090E0389FF001399FF00D1124E3589D
:102CA000FE4F7181571306C07081471303C07281B4
:102CB000711103C001968770E9CFF62E662309F4DF
:102CC00018C18091B20181608093B201F12C11C1D1
:102CD000751308C0341306C0611104C08091B2019D
:102CE000D801C3C04D875E878D859E856A8B0E9403
:102CF000F3146A898823E1F16623D1F12091B201AE
:102D0000822F82958F7090E0029774F08091AD01D0
:102D10009091AE0198878F831986DB86CA862C87AF
:102D2000CE0107960E94AD1186E0F801ADEAB1E050
:102D300001900D928A95E1F70E9467150E9459153E
:102D4000FF24F394D6C04D875E878D859E850E94B3
:102D5000231A292F22952F7030E0223031050CF0F4
:102D6000BCC09F7009F0B6C0805E883008F4C1C056
:102D7000C8010E94AD11E4CFC816D90608F453C0AB
:102D8000F601E81BF90BCF01883C910508F450C00F
:102D9000F12C7C2DD98AC88A89890E941915EDEAFF
:102DA000F1E086E0DF011D928A95E9F70E9459154E
:102DB000A0C0751314C0341312C0611110C08091EB
:102DC000B201F8018583C8010E94AD1186E0EDEAE9
:102DD000F1E0DF011D928A95E9F7FE2C8AC04D874C
:102DE0005E878D859E856A8B0E94F3146A8988238D
:102DF00009F4BECF662309F4BBCF2091B201822F24
:102E000082958F7090E002970CF48ECF8091AD0187
:102E10009091AE019A8389831B82DD82CC822E83BE
:102E2000CE0101967FCF809590958C0D9D1DACCFE6
:102E3000F62E662309F49CCF75132EC034132CC0D4
:102E40002091B20120FD1FC0822F82958F70D9F092
:102E5000D80115962C9315978F3049F08F5F982FD6
:102E60009295907F822F8F70892B15968C93C80135
:102E70000E94AD1186E0F801ADEAB1E001900D923B
:102E80008A95E1F793CF86E0F801ADEAB1E00190D1
:102E90000D928A95E1F72DC04D875E878D859E85C1
:102EA0000E94F314811140CF8091B2018160809320
:102EB000B201C8010E94AD111CC0662309F458CFAD
:102EC0004D875E878D859E850E94F314882309F4C3
:102ED0004FCF2ACF811148CF0CC0243031050CF0E0
:102EE00047CF9F7009F440CFF8019581907F09F09A
:102EF0003BCF8F2D62960FB6F894DEBF0FBECDBFCD
:102F0000DF91CF911F910F91FF90EF90DF90CF90C5
:102F100008951F93CF93DF93CDB7DEB72C970FB6ED
:102F2000F894DEBF0FBECDBF4F83588769877A877D
:102F30008B879C87CE0107960E94C215882369F073
:102F40008F8198852A853B85232BF1F19F3F09F0DE
:102F500063C08F3F09F060C037C086E0FE0137963E
:102F6000DE01119601900D928A95E1F76F817885C7
:102F7000EA85FB85309741F17F3F11F46F3F21F1E6
:102F800020917C0130E0C90101968770992740911A
:102F90007B0150E08417950709F447C069837A8361
:102FA000FD83EC8396E0929FD001939FB00D112496
:102FB000A358BE4FFE01319601900D929A95E1F70C
:102FC00080937C010E94381516E080917B019091DE
:102FD0007C018917C1F1189FC001112483589E4FAD
:102FE0000E94C215882379F1E0917B011E9FF001B8
:102FF0001124E358FE4F40815181628173818481A5
:1030000095810E94281580917B0190E00196877040
:10301000992780937B01D9CF4F81588569857A851F
:103020008B859C850E942815CFCF0E94EF141092AB
:103030007C0110927B01EDEAF1E086E0DF011D9258
:103040008A95E9F7C1CF2C960FB6F894DEBF0FBE74
:10305000CDBFDF91CF911F910895EF92FF920F9313
:103060001F93CF93DF938C01892B09F46CC0F12C53
:10307000EE24E394E8012196F8018491843740F42A
:10308000843008F051C0813081F0823019F15BC08A
:10309000853709F444C0A8F19CE7980F903708F0F1
:1030A00052C08F770E94501141C00E5F1F4FFE012A
:1030B000C49180E28C0F883048F4C7708E2D01C017
:1030C000880FCA95EAF70E94D81A14C08C2F0E9464
:1030D00088102DC00E5F1F4FFE01C49180E28C0F3F
:1030E000883058F4C7708E2D01C0880FCA95EAF752
:1030F0000E94DE1A0E94FF1A1AC08C2F0E945011E3
:1031000016C00E5F1F4FFE01C491CC2381F08FE9E2
:103110009FE00197F1F700C00000C150F6CF0E5FAD
:103120001F4FFE01F49003C00E9488108E018F2D66
:10313000882309F49FCFEFE9FFE03197F1F700C052
:1031400000008150F5CFDF91CF911F910F91FF903B
:10315000EF90089508956093B7017093B80180933C
:10316000B9019093BA010C94DB140F931F93009153
:10317000B7011091B8012091B9013091BA01DC0179
:10318000CB01802B912BA22BB32B8093B701909373
:10319000B801A093B901B093BA011F910F910C949B
:1031A000DB140F931F930091B7011091B801209188
:1031B000B9013091BA01DC01CB0180239123A22314
:1031C000B3238093B7019093B801A093B901B09352
:1031D000BA011F910F910C94DB140F931F93009170
:1031E000B7011091B8012091B9013091BA01DC0109
:1031F000CB0180279127A227B3278093B701909313
:10320000B801A093B901B093BA011F910F910C942A
:10321000DB141092B3011092B4011092B501109218
:10322000B6010C94DB1441E050E060E070E004C0B3
:10323000440F551F661F771F8A95D2F74093B3013D
:103240005093B4016093B5017093B6010C94DB14F4
:1032500041E050E060E070E004C0440F551F661F7D
:10326000771F8A95D2F78091B3019091B401A09114
:10327000B501B091B601482B592B6A2B7B2B40939B
:10328000B3015093B4016093B5017093B6010C94EF
:10329000DB1441E050E060E070E004C0440F551FD3
:1032A000661F771F8A95D2F7409550956095709567
:1032B0008091B3019091B401A091B501B091B60194
:1032C000482359236A237B234093B3015093B401CD
:1032D0006093B5017093B6010C94DB1441E050E0AB
:1032E00060E070E004C0440F551F661F771F8A9589
:1032F000D2F78091B3019091B401A091B501B09142
:10330000B601482759276A277B274093B30150937A
:10331000B4016093B5017093B6010C94DB140F9364
:103320001F930091B3011091B4012091B501309128
:10333000B601DC01CB01802B912BA22BB32B809308
:10334000B3019093B401A093B501B093B6011F915E
:103350000F910C94DB140F931F930091B301109104
:10336000B4012091B5013091B601DC01CB0180237D
:103370009123A223B3238093B3019093B401A0932C
:10338000B501B093B6011F910F910C94DB140F930C
:103390001F930091B3011091B4012091B5013091B8
:1033A000B601DC01CB0180279127A227B3278093A8
:1033B000B3019093B401A093B501B093B6011F91EE
:1033C0000F910C94DB140895CF92DF92EF92FF924D
:1033D0000F931F93CF93DF938C01C090B701D090D0
:1033E000B801E090B901F090BA018091B3019091D9
:1033F000B401A091B501B091B601C82AD92AEA2A30
:10340000FB2ACFE1D0E0D701C6010C2E04C0B6954F
:10341000A795979587950A94D2F780FF06C0B801C3
:103420008C2F0E94BD07019721F4219760F780E05F
:1034300001C08C2FDF91CF911F910F91FF90EF90E2
:10344000DF90CF900895CF93DF93EC010E94E419B1
:10345000BE010E94BD07DF91CF910895CB010E946C
:10346000231A089590910C01992321F090910D0158
:10347000911109C020910E0130910F01F90132968E
:103480009FEF40E01FC0982F9695969596959F3098
:1034900050F5E0910E01F0910F01E90FF11D8770D9
:1034A00021E030E0A90102C0440F551F8A95E2F7E0
:1034B000CA019181892B818308959F3F39F04F5F25
:1034C0004E3041F051915813F8CF0DC05111F7CF44
:1034D000942FF5CF9F3F39F0F901E90FF11D97FDCA
:1034E000FA9582830895089590910C01992321F013
:1034F00090910D01911109C020910E0130910F01A1
:10350000F9013296205F3F4F1FC0982F96959695F0
:1035100096959F30F0F4E0910E01F0910F01E90FC4
:10352000F11D877021E030E0A90102C0440F551F52
:103530008A95E2F7CA018095918189238183089554
:103540003196E217F30729F090819813F9CF108292
:10355000F7CF089581E090E0E0910E01F0910F0126
:10356000E80FF91F1082019680319105A9F708959F
:103570009091CE01892B8093CE01089580959091F2
:10358000CE0189238093CE0108951092CE01089533
:103590009091CD01892B8093CD01089580959091D4
:1035A000CD0189238093CD0108951092CD01089516
:1035B0009091CC01892B8093CC01089580959091B6
:1035C000CC0189238093CC0108951092CC010895F9
:1035D0008093BB0108951092BB01089580910E0164
:1035E00090910F01FC0131969C01205F3F4F80E0DC
:1035F000919191118F5FE217F307D1F70895E09150
:103600000E01F0910F018091CE018083E0910E01B7
:10361000F0910F0190818091CD01892B8083E09101
:103620000E01F0910F0190818091CC01892B808354
:103630008091BB01882361F0E0910E01F0910F01B0
:103640009081892B80830E94EE1A81111092BB0118
:1036500080910E0190910F010C946B0FCF92DF922D
:10366000EF92FF926C01EE24FF24C114D104E10417
:10367000F10421F0C701B60120E101C020E0C72E0E
:10368000D82EE92EFF24C114D104E104F10419F06D
:10369000285FC701B6016B017C0154E0F694E79402
:1036A000D794C7945A95D1F7C114D104E104F10419
:1036B00019F02C5FC701B6016B017C0142E0F69462
:1036C000E794D794C7944A95D1F7C114D104E10483
:1036D000F10419F02E5FC701B601DC01CB01B695EC
:1036E000A79597958795892B8A2B8B2B09F02F5FB0
:1036F000822FFF90EF90DF90CF9008958091E601A8
:10370000843021F11092D00120E488E190E00FB6DE
:10371000F894A895809360000FBE2093600080E02D
:103720000E94580883B7817F846083BF83B781601C
:1037300083BF7894889583B78E7F83BF88E10FB667
:10374000F89480936000109260000FBE0895089571
:103750000895CF930E94A71B0E9488040E94A81B73
:10376000C0E08C2F0E947605811104C0CF5FCE305F
:10377000C1F701C081E0CF9108950E94EF140E942B
:103780005F0F0C94580882E084BD93E095BD9AEFDA
:1037900097BD80936E0008952FB7F8948091D10162
:1037A0009091D201A091D301B091D4012FBF08957F
:1037B000CF92DF92EF92FF920F931F932FB7F8945F
:1037C0004091D1015091D2016091D3017091D40107
:1037D0002FBF6A017B01EE24FF248C0120E030E042
:1037E000C016D106E206F30610F4415051099A01C1
:1037F000281B390BC9011F910F91FF90EF90DF90AB
:10380000CF9008951F920F920FB60F9211248F93AD
:103810009F93AF93BF938091D1019091D201A091DA
:10382000D301B091D4010196A11DB11D8093D101A6
:103830009093D201A093D301B093D401BF91AF91E3
:103840009F918F910F900FBE0F901F9018950E941F
:103850005C0CF8942FEF87EA91E62150804090406D
:10386000E1F700C0000087E090EBDC018093F001FD
:103870009093F101A093F201B093F3019CE088E1F1
:103880000FB6F894A895809360000FBE90936000E7
:10389000FFCFEF92FF920F931F93CF93DF93D82F19
:1038A000C0E08C2F0E94760500E010E0E82EF12C9D
:1038B000C701002E02C0959587950A94E2F780FD16
:1038C00006C00F5F1F4F0630110591F709C0602F2A
:1038D0007C2F80E00E947E05D813F3CF81E004C0E6
:1038E000CF5FCE30F1F680E0DF91CF911F910F9145
:1038F000FF90EF900895CF93C82F8CE20E94491C4F
:10390000882321F08C2FCF910C94491C80E0CF911B
:103910000895CF930E94D01D811102C00E94B61D50
:10392000C5E6C15049F00E9488048FE39CE90197E5
:10393000F1F700C00000F5CF89E20E947B1C8111E5
:1039400013C18AE20E947B1C81110E94B61D85E092
:103950000E947B1C81110E94271C0E94DB1D80930A
:10396000CF0187E00E947B1C8823A9F18BE10E9494
:103970007B1C882351F08091CF0181FB222720F905
:1039800091E0922790FB81F90EC08EE00E947B1C93
:10399000882361F08091CF0182FB222720F991E0FA
:1039A000922790FB82F98093CF0115C080E10E949D
:1039B0007B1C9091CF01882341F093FB222720F9B3
:1039C00081E0822780FB93F904C0892F809580FBDA
:1039D00090F99093CF018091CF010E94DF1D0E944A
:1039E000ED1D8093EF0180EE0E947B1C882341F047
:1039F0008091EF01982F909590FB80F98093EF01D3
:103A000089E30E947B1C882359F08091EF0181FBA0
:103A1000222720F991E0922790FB81F98093EF0112
:103A200082EE0E947B1C882359F08091EF0182FB7B
:103A3000222720F991E0922790FB82F98093EF01F1
:103A400086EE0E947B1C882359F08091EF0183FB56
:103A5000222720F991E0922790FB83F98093EF01D0
:103A600083EE0E947B1C882359F08091EF0184FB38
:103A7000222720F991E0922790FB84F98093EF01AF
:103A800085E30E947B1C882359F08091EF0185FB20
:103A9000222720F991E0922790FB85F98093EF018E
:103AA00081E30E947B1C882359F08091EF0186FB03
:103AB000222720F991E0922790FB86F98093EF016D
:103AC00081E10E947B1C882359F08091EF0187FBE4
:103AD000222720F991E0922790FB87F98093EF014C
:103AE0008091EF010E94F11D8091EF0187FB8827F3
:103AF00080F980930D0187E20E947B1CC82F8EE124
:103B00000E947B1C8111C2608FE10E947B1C81118D
:103B1000C46080E20E947B1C8111C86081E20E9427
:103B20007B1C8111C06182E20E947B1C8111C062FA
:103B300083E20E947B1C8111C06484E20E947B1C92
:103B4000882311F0C06802C0CC2329F08C2F0E947A
:103B5000E81D6C2F03C00E94E41D682F70E080E018
:103B600090E0CF910C94AB18CF9108956DEE7EEF5D
:103B700080E090E00E94222460E082E090E00E94D9
:103B8000102460E083E090E00E94102460E084E074
:103B900090E00E94102460E085E090E00C941024F6
:103BA00080E090E00E940A2421E08D3E9E4F09F0C3
:103BB00020E0822F089582E090E00C940224682F88
:103BC00082E090E00C94102483E090E00C940224B6
:103BD000682F83E090E00C94102484E090E00C9433
:103BE0000224682F84E090E00C9410248091D70187
:103BF00080FF0BC06091130185E0689FB001112424
:103C000075956795759567952BC081FF09C0609183
:103C1000130185E0689FB00111247595679520C058
:103C200082FF07C06091130185E0689FB0011124F5
:103C300017C09091D8019923D1F060911201961785
:103C400088F72091130185E0289F90011124929F0D
:103C5000A001939F500D112470E0CA010E94D4234B
:103C60006038710540F46115710539F002C065E0F6
:103C700070E0862F08958FE7089581E00895809180
:103C8000D70180FF08C06091110170E075956795BC
:103C90007595679521C081FF06C06091110170E0A4
:103CA0007595679519C082FF04C06091110170E09D
:103CB00010C09091D8019923C1F06091100196171E
:103CC000A0F780911101899FC001112470E00E942A
:103CD000D4236038710528F46115710521F0862F11
:103CE00008958FE7089581E0089561E070E0F4CFD2
:103CF000803F21F40E94F61D819504C0813F29F484
:103D00000E94F61D8093DB010895823F21F40E94FA
:103D1000F61D819504C0833F29F40E94F61D80930F
:103D2000DA010895893F19F40E943F1E05C08A3FB9
:103D300031F40E943F1E81958093DC0108958B3FF2
:103D400021F40E943F1E819504C08C3F29F40E94FB
:103D50003F1E8093DD010895843F21F48091D901B5
:103D6000816017C0853F21F48091D901826011C024
:103D7000863F21F48091D90184600BC0873F21F4F4
:103D80008091D901886005C0883F31F48091D901C4
:103D900080618093D90108958D3F21F48091D701EE
:103DA00081600BC08E3F21F48091D701826005C0F5
:103DB0008F3F29F48091D70184608093D7010895C3
:103DC000803F39F48091DB0187FF6CC01092DB01EA
:103DD00069C0813F29F48091DB011816BCF362C0F1
:103DE0009091DA01823F29F497FF5CC01092DA01CA
:103DF00059C0833F19F41916CCF354C0893F41F4DC
:103E00008091DC0118160CF04DC01092DC014AC004
:103E10008A3F29F48091DC0187FF44C0F6CF8B3FB5
:103E200039F48091DD0187FF3DC01092DD013AC079
:103E30008C3F29F48091DD011816BCF333C0843F18
:103E400021F48091D9018E7F17C0853F21F48091A4
:103E5000D9018D7F11C0863F21F48091D9018B7FDC
:103E60000BC0873F21F48091D901877F05C0883F2F
:103E700031F48091D9018F7E8093D90113C08D3F99
:103E800021F48091D7018E7F0BC08E3F21F4809169
:103E9000D7018D7F05C08F3F29F48091D7018B7F9B
:103EA0008093D7018091DA0181110EC08091DB01EE
:103EB00081110AC08091DC01811106C08091DD0171
:103EC000811102C01092D801089589ED91E00E94FD
:103ED000760F0E94CC1B9093D6018093D501089554
:103EE0001F93CF93DF938091D5019091D6010E94CB
:103EF000D81BAC019091D801992321F02091140195
:103F000030E006C0209115018AE0289F900111241D
:103F10004217530708F486C08091DA01C091DB0193
:103F2000D091DC011091DD01811107C0C11176C073
:103F3000D11174C0111172C075C09F3F19F09F5FFD
:103F40009093D801181624F40E94F61D8093DA018C
:103F50008091DA0187FF05C00E94F61D819580934C
:103F6000DA011C1624F40E94F61D8093DB01809177
:103F7000DB0187FF05C00E94F61D81958093DB0160
:103F80006091DA01662339F1C091DB01CC2319F18C
:103F9000772767FD7095872F972F0E94E52223E3EF
:103FA00033E343E35FE30E9449230E94B22260931C
:103FB000DA016C2F772767FD7095872F972F0E9466
:103FC000E52223E333E343E35FE30E9449230E94B6
:103FD000B2226093DB011D1624F40E943F1E8093E1
:103FE000DC018091DC0187FF05C00E943F1E8195A6
:103FF0008093DC01111624F40E943F1E8093DD01A2
:104000008091DD0187FF05C00E943F1E819580934E
:10401000DD01DF91CF911F910C94651F9F3F09F047
:104020008ECF96CFDF91CF911F910895E9EDF1E00A
:1040300085E0DF011D928A95E9F71092D801109270
:10404000D7010895833081F128F4813059F082300E
:10405000D1F00895853009F449C0B8F1863009F4EB
:1040600056C0089580911501262F30E0280F311D8C
:104070002F3F310524F4680F6093150108958FEFE9
:1040800080931501089580911401262F30E0280FA8
:10409000311D2F3F310524F4680F609314010895FA
:1040A0008FEF80931401089580911301262F30E043
:1040B000280F311D2F3F310524F4680F6093130141
:1040C00008958FEF80931301089580911201262F98
:1040D00030E0280F311D2F3F310524F4680F609325
:1040E000120108958FEF80931201089580911101BC
:1040F000262F30E0280F311D2F3F310524F4680FA3
:104100006093110108958FEF8093110108958091BC
:104110001001262F30E0280F311D2F3F310524F4E8
:10412000680F6093100108958FEF80931001089538
:10413000833011F128F4813049F0823091F00895F4
:10414000853081F120F18630C1F10895809115010B
:10415000681720F4861B80931501089510921501AD
:10416000089580911401681720F4861B8093140130
:10417000089510921401089580911301681720F496
:10418000861B809313010895109213010895809166
:104190001201681720F4861B809312010895109273
:1041A0001201089580911101681720F4861B8093F5
:1041B000110108951092110108958091100168175E
:1041C00020F4861B80931001089510921001089529
:1041D0000F931F938D3109F46BC008F03FC08E30F0
:1041E00009F47FC0C0F4873009F469C068F48630F0
:1041F00009F0B1C08091CF01817F8E7F8093CF0184
:1042000081E08093DF01A8C0883009F4A2C08B3020
:1042100009F49FC0A0C0863109F49BC078F48031B6
:1042200009F472C0813109F096C00E94EF14909198
:104230000D0181E0892780930D018BC0893109F43C
:1042400088C08B3109F087C08091CF0181FB222784
:1042500020F991E0922790FB81F94CC0853309F455
:1042600070C048F4873209F46CC008F459C0893230
:1042700009F467C070C0833438F48A3308F04EC044
:10428000883309F466C067C0833409F45AC088349F
:1042900009F061C00E94EF140FEF13ED20E301500D
:1042A00010402040E1F700C000000E94271C51C0D0
:1042B0000E946C220E945F0F0E9458084AC0909191
:1042C000CF01892F8095817080FB90F929F096604D
:1042D00098609093CF0140C0997F977F9093CF01D2
:1042E00038C08091CF0182FB222720F991E09227EC
:1042F00090FB82F98093CF01992359F18091CF01EE
:1043000081608093CF0125C08091CF0183FB22275C
:1043100020F991E0922790FB83F9ECCF895301C0FB
:104320008D5141E050E060E070E08A019B0104C0E3
:10433000000F111F221F331F8A95D2F7C901B80140
:1043400004C061E070E080E090E00E94AB180E9441
:10435000EF1481E001C080E01F910F91089580E08B
:10436000089580E00895CF93C82F8091DF018130B8
:1043700079F018F08230E9F187C0E0910E01F091F8
:104380000F018081813169F0823209F07FC009C05C
:10439000E0910E01F0910F018081813111F08232A4
:1043A00061F48C2F0E94AF21811104C08C2F0E94D8
:1043B000E8201DC081E090E01AC08C2F0E94B1213E
:1043C000811114C0C43179F048F4CB3079F0C03198
:1043D00009F060C082E08093DF0108C0C93219F0A3
:1043E000C83321F057C01092DF0154C081E08170C2
:1043F00053C0C93289F118F5C43171F1A8F4C7303E
:1044000009F046C08AE08093150194E1909314016D
:1044100093E0909313018093120188E0809311013F
:1044200088E28093100134C0CE51C63088F5EC2F5D
:10443000F0E0E65DFE4F80818093DE0129C0CE343E
:10444000E9F020F4CB3421F56AE013C0C13579F0EE
:10445000C235F1F461E00DC08091DE01882319F0CE
:104460001092DE0115C081E08093DF0115C061E08C
:1044700006C08091DE010E9422200AC06AE080917D
:10448000DE010E94982004C01092DF0180E004C089
:1044900081E002C080E0ABCFCF910895E1E8F0E089
:1044A0008081886080838081816080838FB7F89469
:1044B00093E09093890090ED909388008FBF0895CA
:1044C000EFE6F0E08081826080830895EFE6F0E01F
:1044D00080818D7F80830895EFE6F0E0908182E017
:1044E0008927808308951F920F920FB60F9211248F
:1044F0002F933F934F935F936F937F938F939F93EC
:10450000AF93BF93EF93FF938091E0019091E1010E
:1045100001969093E1018093E001811103C082E054
:104520000E945808E091E101E695E695F0E0E45636
:10453000FB4FE4918091E0018E1303C080E00E9464
:104540005808FF91EF91BF91AF919F918F917F910B
:104550006F915F914F913F912F910F900FBE0F90F0
:104560001F90189504D06894B1118DC0089570D033
:1045700088F09F5790F0B92F9927B751A0F0D1F04C
:10458000660F771F881F991F1AF0BA95C9F712C0D6
:10459000B13081F077D0B1E0089574C0672F782FE3
:1045A0008827B85F39F0B93FCCF386957795679542
:1045B000B395D9F73EF490958095709561957F4FAE
:1045C0008F4F9F4F0895E89409C097FB3EF4909554
:1045D0008095709561957F4F8F4F9F4F9923A9F0DC
:1045E000F92F96E9BB279395F6958795779567956B
:1045F000B795F111F8CFFAF4BB0F11F460FF1BC0AF
:104600006F5F7F4F8F4F9F4F16C0882311F096E941
:1046100011C0772321F09EE8872F762F05C06623EF
:1046200071F096E8862F70E060E02AF09A95660FA8
:10463000771F881FDAF7880F9695879597F9089561
:1046400057FD9058440F551F59F05F3F71F0479543
:10465000880F97FB991F61F09F3F79F08795089528
:10466000121613061406551FF2CF4695F1DF08C047
:10467000161617061806991FF1CF86957105610564
:1046800008940895E894BB2766277727CB0197F90C
:1046900008950BD078C069D028F06ED018F095231B
:1046A00009F05AC05FC01124EECFCADFA0F3959F76
:1046B000D1F3950F50E0551F629FF001729FBB2709
:1046C000F00DB11D639FAA27F00DB11DAA1F649FB5
:1046D0006627B00DA11D661F829F2227B00DA11D68
:1046E000621F739FB00DA11D621F839FA00D611DEE
:1046F000221F749F3327A00D611D231F849F600D0F
:10470000211D822F762F6A2F11249F5750408AF047
:10471000E1F088234AF0EE0FFF1FBB1F661F771FD3
:10472000881F91505040A9F79E3F510570F014C06A
:10473000AACF5F3FECF3983EDCF3869577956795BB
:10474000B795F795E7959F5FC1F7FE2B880F911DF1
:104750009695879597F9089597F99F6780E870E097
:1047600060E008959FEF80EC089500240A941616E7
:10477000170618060906089500240A94121613064F
:10478000140605060895092E0394000C11F48823DD
:1047900052F0BB0F40F4BF2B11F460FF04C06F5FF9
:1047A0007F4F8F4F9F4F089597FB072E16F400946D
:1047B00007D077FD09D00E94EE2307FC05D03EF418
:1047C000909581959F4F0895709561957F4F0895BD
:1047D000EE0FFF1F0590F491E02D0994AA1BBB1B5F
:1047E00051E107C0AA1FBB1FA617B70710F0A61BF1
:1047F000B70B881F991F5A95A9F780959095BC0112
:10480000CD010895F999FECF92BD81BDF89A9927FF
:1048100080B50895A8E1B0E042E050E00C942A246D
:10482000262FF999FECF92BD81BDF89A019700B469
:10483000021639F01FBA20BD0FB6F894FA9AF99A09
:104840000FBE08950196272F0E9411240C94102466
:10485000DC01CB01FC01F999FECF06C0F2BDE1BD40
:10486000F89A319600B40D9241505040B8F708952F
:04487000F894FFCFEA
:1048740020025A08E808C50891085D080101BC0136
:1048840028080A03140A3F4D36395D041004DA037C
:10489400A10334034D0366037F03010203040506E9
:0448A40007080900F8
:00000001FF
