:100000000C9494020C94DB020C94DB020C94DB0243
:100010000C94DB020C94DB020C94DB020C94DB02EC
:100020000C94DB020C94DB020C9402200C94D5207F
:100030000C9492160C94DB020C94DB020C94DB0201
:100040000C94DB020C94DB020C94DB020C94DB02BC
:100050000C94DB020C94FA160C94DB020C94DB0279
:100060000C94DB020C94DB020C94DB020C94DB029C
:100070000C94DB020C94DB020C94DB020C94DB028C
:100080000C94DB020C94DB020C94DB020C94DB027C
:100090000C94DB020C94DB020C94DB020C94DB026C
:1000A0000C94DB020C94DB020C94DB0201E00119DE
:1000B000021902E00001E00106020602E00001E38D
:1000C0000119021902E30001E30106020602E3003E
:1000D0000000F0A2F0A1F0A329002B00E000E10055
:1000E000003000001E00140004001D43E200010067
:1000F0001F001A0016001B00E3022C00200008005D
:10010000070006002F00E300210015000900190078
:1001100030000100220017000A00050000002C0436
:100120003400023000002D000000290035000330AB
:1001300000002E000000010023001C000B00110035
:1001400000000153240018000D00100050002C1175
:1001500025000C000E0036005100E70026001200BA
:100160000F00370052002C002700130033423800E4
:100170004F002C1831002A002800E1000100000087
:100180000100010001000100013000000100010038
:10019000010001000100E200010001000100010076
:1001A0000100010001000100010001000100E00068
:1001B00001000100010001000100E3000100010055
:1001C000010001000000E600010001000000010044
:1001D000000001000100010000000100000001001A
:1001E0000100010001000100000001000100010008
:1001F000010001000100E700010001000100010011
:100200000100E400010001000100010001002C00D8
:1002100001000100010001000100E60001000100F1
:1002200001000100010000000100010001000100C7
:10023000010000003A000100F2000100010001008D
:100240003B00F000F1000100010001003C00010052
:10025000F3000100F40001003D0001000100010075
:10026000F50001003E000100010001000000010056
:100270003F000100000001000000010040000100FB
:1002800000000100000001004100010050000100D9
:10029000000000704200010051000100AC000100AC
:1002A0004300010052000100AA00B6004400010012
:1002B0004F000100A90001004500010001000100FC
:1002C000AB00010001000100AE000100A800000029
:1002D0000100010001000100010000000100010017
:1002E0000100010001000100010001000100010006
:1002F00001000100010001000100010001000100F6
:1003000001000100010001000100010001000100E5
:1003100001000100000001000100010000000100D7
:1003200000000100010001000000010000000100C8
:1003300001000100010001000000010001000100B6
:1003400001000100010001002D0001000100010079
:10035000010001002E002F00330001000100010008
:1003600031003000340001000100010035000100BF
:100370000100010001000000160345007200670043
:100380006F0044006F007800200045005A00000014
:1003900016034500720067006F0044006F0078008C
:1003A000200045005A0000000403090409026D0002
:1003B000040100A0FA090400000103010100092161
:1003C000110100012240000705810308000A090409
:1003D00001000103010200092111010001224D0069
:1003E0000705820308000A09040200010300000057
:1003F0000921110100012236000705830308000AC4
:100400000904030001030000000921110100012279
:1004100039000705840320000112011001000000CB
:1004200008EDFE071301000102000105010906A104
:1004300001050719E029E7150025019508750181D7
:1004400002050819012905950575019102950175A7
:100450000391010507190029F71500250195F87585
:10046000018102C005010980A101850216810026D3
:10047000B7001A81002AB700751095018100C005E8
:100480000C0901A1018503160100269C021A010036
:100490002A9C02751095018100C005010902A10185
:1004A0000901A10005091901290515002501950576
:1004B000750181029501750381010501093009313A
:1004C0001581257F95027508810609381581257FDC
:1004D000950175088106050C0A38021581257F955E
:1004E0000175088106C0C005010906A101050719AB
:1004F000E029E71500250195087501810295017530
:1005000008810105081901290595057501910295D4
:1005100001750391010507190029FF150026FF0049
:10052000950675088100C00011241FBECFEFDAE0E8
:10053000DEBFCDBF04B603FE27C08091D8029091E4
:10054000D902A091DA02B091DB028730904BA7402C
:10055000B04BD1F41092D8021092D9021092DA0264
:100560001092DB0214BE84B7877F84BF0FB6F89465
:10057000A89580916000886180936000109260006F
:100580000FBEE0E0FFE3099511E0A0E0B1E0E8E391
:10059000F8E402C005900D92AC3DB107D9F722E016
:1005A000ACEDB1E001C01D92A83DB207E1F70E9499
:1005B000541D0C941A240C9400001092B9008AE087
:1005C0008093B800089594EA9093BC009091BC0089
:1005D00097FFFCCF9091B900987F983021F090312F
:1005E00011F081E008958093BB0084E88093BC0003
:1005F0008091BC0087FFFCCF8091B900887F883153
:1006000011F0803471F780E0089584E98093BC0094
:100610008091BC0084FDFCCF08958093BB0084E8EA
:100620008093BC008091BC0087FFFCCF9091B90003
:10063000987F81E0983209F480E0089584E88093FF
:10064000BC008091BC0087FFFCCF8091BB00089567
:1006500080B38C7080BB81B3836F81BB0895809120
:100660000101811115C080E40E94E3028093010121
:1006700081110CC082E10E940D0380930101811160
:1006800005C08FEF0E940D03809301010E940503B6
:1006900084B1807F84B985B1807F85B98AB1837F39
:1006A0008AB98BB1837F8BB93E98469808950C9494
:1006B000F7040E94FF08809301010E942F030E940B
:1006C0002803EBEEF1E0ADEDB1E011921D9281E077
:1006D000E93FF807D1F70C94E9080E94FF088093DE
:1006E00001010E942F030E942803EBEEF1E0ADED23
:1006F000B1E011921D9281E0E93FF807D1F708952A
:10070000AF92BF92CF92DF92EF92FF920F931F931F
:10071000CF93DF9380910101882379F08091DC01F0
:100720008F5F8093DC01811108C00E94FF088093D5
:100730000101811102C00E9491088DEDC82E81E057
:10074000D82E760100E010E0AA24A394B12CD5E0C5
:10075000C02F073008F072C08091010181111BC0C9
:1007600080E40E94E30280930101811112C082E1C2
:100770000E940D038093010181110BC0C501002E61
:1007800001C0880F0A94EAF780950E940D038093B8
:1007900001010E94050380EA8A95F1F7C73008F04D
:1007A0006DC0C0910101C1118EC080E40E94E302BE
:1007B00080930101811112C083E10E940D03809397
:1007C000010181110BC081E40E94E30280930101C9
:1007D000811104C00E941E03C82FC0950E9405030A
:1007E000D7018C918C1719F0CC93D09300010E9403
:1007F0002F030F5F1F4FBFEFEB1AFB0A0E301105DF
:1008000009F0A6CF80910001882351F08150809398
:100810000001882309F459C0E5E0EA95F1F70000EA
:100820000E94180681E0DF91CF911F910F91FF90F8
:10083000EF90DF90CF90BF90AF9008950A30B1F065
:1008400038F4083069F0093071F0209A2898A3CF65
:100850000C3091F070F00D30C1F73E9A46989BCF66
:10086000219A299898CF229A2A9895CF239A2B9843
:1008700092CF529A5B988FCF539AFCCFCFB1C0954D
:10088000C170799B18C080E0C82B7C9B16C080E0AB
:10089000C82B7D9B14C080E0C82B7E9B12C080E0DB
:1008A000C82B8FB18095881F8827881F8295880F55
:1008B000807EC82B95CF82E0E7CF84E0E9CF88E047
:1008C000EBCF80E1EDCFC0E08BCFEBEEF1E0D601D6
:1008D0008D916D018193BBEECB16B1E0DB06B9F7CC
:1008E0009FCFE82FF0E0E551FE4F808108950895F5
:1008F000FC01613001F140F0623069F1633009F4CC
:1009000058C080E090E008958281882339F00E94E9
:10091000C4169093FA018093F901F3CF8091F90105
:100920009091FA010E94D0168739910508F058C0BD
:100930008EEB90E0089582818111E9CF8091F901D9
:100940009091FA010E94D0168739910508F04BC0AA
:100950008CEA90E008958281882351F00E94C416A9
:100960009093FA018093F90181EE0E944E0BC9CF5A
:100970008091F9019091FA010E94D0168639910573
:10098000A0F486E20E944E0B86E20E94350C87E2BC
:100990000E944E0B87E20E94350C81EE0E94350CBE
:1009A00080E50E944E0B80E501C081EE0E94350C6F
:1009B000A8CF82818111D2CF8091F9019091FA0163
:1009C0000E94D0168639910580F78FE20E944E0B67
:1009D0008FE20E94350C80E30E944E0B80E3DBCF58
:1009E00087EC90E0089585EB90E00895089560917C
:1009F000690270916A0280916B0290916C020E9470
:100A0000C61556985E9825982D9826982E98279862
:100A10002F98823039F0833041F0813041F4259AAB
:100A20002D9A0895269A2E9A0895279A2F9A089516
:100A300081E0089581E008950C941A050E94240F26
:100A40002FEF84E39CE0215080409040E1F700C00C
:100A500000000C941F170F931F93CF93DF938C010B
:100A6000FC01C081D181CE010E945014BE010E94C0
:100A7000AC07EC01B8010E941C05882361F0B801A5
:100A8000CE010E944208882331F0B801CE010E94B5
:100A9000BA0981119FC080E0DF91CF911F910F9122
:100AA0000895F80182818823B1F30E941E05F3CFD7
:100AB000F8018281882379F3809196028160809386
:100AC0009602E9CFF8018281882309F49AC00E9436
:100AD0002F16811102C00E9415160E94421690E046
:100AE0009093CA028093C902FE01E350F047E231BD
:100AF000F105C0F4E058FA4F8091C9020C94CA2362
:100B00009E05A005AB05A205A405A605A805AA0596
:100B1000AD05AF05B105BC05B305B505B705B9050C
:100B2000BB05BE058091C90281608093C902809196
:100B3000C9020E9446160E94240FADCF8260F5CFF5
:100B40008460F3CF8061F1CF8062EFCF8064EDCF1E
:100B50008068EBCF84608860E8CF8E7FE6CF8D7FA2
:100B6000E4CF8B7FE2CF8F7EE0CF8F7DDECF8F7B98
:100B7000DCCF8F77DACF8B7F877FD7CF87FB992723
:100B800090F921E0922790FB87F9CFCFF80182817D
:100B9000882331F01092FB0182E00E94840C7BCF0D
:100BA0008091FB01811106C086E20E944E0B86E215
:100BB0000E94350C82E00E948B0C6DCF8091FC016D
:100BC000811106C087E20E944E0B87E20E94350C1D
:100BD00080E2F1CFC531F0E7DF07D0F4C23080E723
:100BE000D80708F06FCFC115E0E7DE0709F459CF49
:100BF000C130D04709F45CCF81E08093FB01809342
:100C0000FC01C801DF91CF911F910F910C94180541
:100C1000CC3380E7D80709F4B9CFCD33D04761F79B
:100C2000F8018281882351F21092FC0180E2B5CF55
:100C30000C94570308950C941A060C941B06972FD6
:100C400070E026E0929F600D711D1124FB0144E5C8
:100C5000849FE00DF11D1124EE0FFF1FE852FF4F9E
:100C6000859194910E94C007811520E4920708F0B5
:100C70008DC0811540E3940708F0EFC0803E9105D8
:100C800008F071C0803C910508F0CBC0883A91050E
:100C900080F4853A910508F0CCC08130910509F4C3
:100CA0006EC020F08430910508F069C080E090E0CB
:100CB00008958D3B9105D0F7883A910509F40CC150
:100CC000893A910509F40BC18A3A910509F40AC1E0
:100CD0008B3A910509F409C18C3A910509F408C1D0
:100CE0008B3B910509F407C18C3B910509F406C1C2
:100CF0008D3A910509F405C1803B910509F404C1C1
:100D00008E3A910509F403C18F3A910509F402C1A5
:100D1000813B910509F401C1823B910509F400C1B1
:100D2000833B910509F4FFC0843B910509F4FEC0A3
:100D3000853B910509F4FDC0863B910509F4FCC093
:100D4000873B910509F4FBC0883B910509F4FAC083
:100D5000893B910509F4F9C08A3B910509F4F8C073
:100D600080E094E408958F3F910509F048F4803FB6
:100D7000910508F069C0883E910508F097CF089565
:100D8000811520E2920708F061C00895811543E5BE
:100D9000940760F5811522E5920708F069C0811576
:100DA00041E5940708F05FC0811520E5920708F43B
:100DB00057C09C0154E0369527955A95E1F7922F3C
:100DC0009370482F437021E030E002C0220F331FA0
:100DD0004A95E2F73C68392B86958695837040E208
:100DE000849FC0011124822B932B0895811545E522
:100DF000940750F4811524E5920708F44DC0982F0C
:100E00008827846F906A0895811546E5940708F451
:100E100057C09C0130562115304108F047CF9F70D4
:100E200053C0FC01EE0FFF1FE05BF04085919491F1
:100E30000895853A910509F449C0863A910509F06B
:100E400048C082E890E4089590650895FC01FF7021
:100E5000EE0FFF1FE053FF4FE9CF9927906C0895E5
:100E60009F70906A0895982F8827816F906A0895DF
:100E70009C0123703327E1E0F0E002C0EE0FFF1F7A
:100E80002A95E2F78695869520E2829FC00111247B
:100E90008E2B9F2B9C6808959C0123703327E1E0E3
:100EA000F0E002C0EE0FFF1F2A95E2F786958695C7
:100EB00040E2849FC00111248E2B9F2B9A680895D5
:100EC000982F882788279F719062089581E890E481
:100ED000089583E890E4089582EE94E4089589EEFD
:100EE00094E408958AEE94E4089585EB94E40895DB
:100EF00086EB94E4089583EB94E4089584EB94E402
:100F0000089587EB94E408958CEC94E408958DECB7
:100F100094E4089583E895E408958AE895E40895B3
:100F200082E995E4089584E995E4089581E296E4E0
:100F3000089583E296E4089584E296E4089585E2B4
:100F400096E4089586E296E4089587E296E408958B
:100F50008AE296E414CF0895972F70E026E0929FDE
:100F6000600D711D1124FB0194E5899FE00DF11DB9
:100F70001124EE0FFF1FE852FF4F859194910895C1
:100F80008238910549F1B0F48133910509F45AC0D2
:100F900048F48932910509F450C08A32910509F468
:100FA00056C008958533910509F442C089339105EF
:100FB00099F00895833E910521F138F4803E910522
:100FC00081F0823E9105A1F00895863E910501F1E0
:100FD000873E910531F108952091C9022370E1F512
:100FE00008952091C90220FF12C089E390E008957E
:100FF0002091C90222FF0BC024FF31C080E090E0A5
:1010000008952091C90222FD2DC024FDF7CF089537
:101010002091C90223FFFBCF24FDF0CF87EE90E0A3
:1010200008952091C90223FFF0CF86EE90E0089545
:101030002091C90225FD19C008952091C90225FDFE
:1010400017C008952091C90226FD15C0089520916A
:10105000C90226FD13C0089580EE90E0089583EE46
:1010600090E0089582EE90E0089589E290E008957E
:1010700085E390E008958AE290E0089581E390E0AE
:10108000C6CF08950F931F93CF938C01FB018281EC
:10109000811106C0C1E08C2FCF911F910F9108954F
:1010A000C0910A02C11125C00531104799F70E946D
:1010B000410881E080930A020E94C41690930902BD
:1010C000809308021092FD011092FF011092FE0120
:1010D000109201021092000210920302109202027A
:1010E000109205021092040210920702109206025A
:1010F000D2CF80910802909109020E94D016883CBC
:10110000910540F68091FD01E82FF0E0EE0FFF1F02
:10111000E250FE4F118300838F5F8093FD01C0E09A
:10112000BACF56985E9825982D9826982E9827988D
:101130002F988FEF90E09093890080938800909390
:101140008B0080938A0090938D0080938C00259A69
:101150002D9A2FEF80E792E0215080409040E1F7F8
:1011600000C00000269A2E9A2FEF80E792E02150CF
:1011700080409040E1F700C00000279A2F9A2FEF9F
:1011800080E792E0215080409040E1F700C00000ED
:1011900025982D982FEF80E792E0215080409040D5
:1011A000E1F700C0000026982E982FEF80E792E02C
:1011B000215080409040E1F700C0000027982F9810
:1011C00056985E9825982D9826982E9827982F98AF
:1011D000089589EA8093800089E0809381002498B3
:1011E0002C983F988AB18F748AB96E98479A8BB1C0
:1011F000806B8BB9769A0E9491080C94F60480E279
:101200008093010180910B0281110EC00E94DD02CA
:1012100081E080930B022FEF83ED90E3215080401B
:101220009040E1F700C0000080E40E94E302809358
:10123000010181112EC00E940D03809301018111D3
:1012400028C00E940D0380930101811122C08FE309
:101250000E940D038093010181111BC00E940503B0
:1012600080E40E94E30280930101811112C08CE0AE
:101270000E940D038093010181110BC00E940D0398
:1012800080930101811105C08FE30E940D038093BB
:1012900001010E940503809101010895882339F01E
:1012A00090E08A3010F44D9608950697089587E2ED
:1012B00090E0089580910C02813071F048F0823006
:1012C000F1F08FE39CE90197F1F700C00000089569
:1012D00082EE0E944E0BF5CF80EE0E944E0B81EE07
:1012E0000E944E0B88E10E944E0B88E10E94350C53
:1012F00081EE0E94350C80EE0E94350CE2CF82EE2A
:101300000E944E0B87E50E944E0B87E5F5CF80913A
:101310000C02813031F010F0823041F482EE0C94F6
:10132000350C8CE20E944E0B8CE2F9CF0895EF92BF
:10133000FF921F93CF93DF937C01CCE0D0E0C701F5
:101340000C2E02C0969587950A94E2F78F700E9442
:101350004E09182F0E944E0B812F0E94350C2497A6
:10136000CC3F8FEFD80759F7DF91CF911F91FF90B6
:10137000EF900895CF93DF93EC01C13080E8D80758
:1013800060F0FB018281882341F00E945A09CE015E
:101390009F770E9497090E94870981E0DF91CF9192
:1013A000089590931202809311020895E091110222
:1013B000F0911202309721F00190F081E02D099414
:1013C00080E00895E0911102F0911202309721F02F
:1013D0000280F381E02D09940895E0911102F091CB
:1013E0001202309721F00480F581E02D09940895D0
:1013F00020910F02309110022817390771F0909355
:10140000100280930F02E0911102F09112023097C6
:1014100021F00680F781E02D0994089520910D02B6
:1014200030910E022817390771F090930E028093C5
:101430000D02E0911102F0911202309721F0008428
:10144000F185E02D0994089508950C94240A0E94D2
:10145000BB160E9459030C944117BF92CF92DF92A2
:10146000EF92FF920F931F93CF93DF93CDB7DEB729
:101470002A970FB6F894DEBF0FBECDBF0E9480033F
:1014800084E1C82E82E0D82E00E010E0B02E802F3C
:101490000E947104E82EF601F1906F018F1116C0C1
:1014A0000F5F1F4F0E30110589F78FEF89838A83F5
:1014B0001B820E94C4168160782F9D838C83498192
:1014C0005A816B818D810E940C0B38C080919602ED
:1014D00081FD0E94770480E090E0FE242F2D30E013
:1014E000482FB901082E02C0759567950A94E2F756
:1014F00060FF41C08E83BF8281E090E06C0102C03A
:10150000CC0CDD1C4A95E2F72E2D30E02C213D213C
:10151000232B09F480E088870E94C4168160782F0D
:101520009A8789874E815F8168858A850E940C0B26
:10153000F801EC5EFD4F80818C2580830E94D018DD
:101540000E94D609909113028917D9F00E94D609FA
:10155000809313022A960FB6F894DEBF0FBECDBF5C
:10156000DF91CF911F910F91FF90EF90DF90CF907F
:10157000BF900C941D0601968630910509F0B0CFFE
:101580008FCF2A960FB6F894DEBF0FBECDBFDF9186
:10159000CF911F910F91FF90EF90DF90CF90BF9070
:1015A0000895DC0111962C9111978C91682F70E0B1
:1015B00041E050E001C0440F8A95EAF712968C9101
:1015C000129730E08823D9F0809130028823E9F027
:1015D00086E0829FF001839FF00D1124E60FF71F34
:1015E000EE0FFF1FEB5EFE4F808191818D939C93E8
:1015F000F901EE5DFD4F8081482B40830895F9018C
:10160000EE5DFD4F9081942319F7F901EE5DFD4FDA
:10161000409580814823F1CFCF93DF93CDB7DEB7DC
:101620002B970FB6F894DEBF0FBECDBF942F4F831C
:10163000252F588769877A878B874A855B85452B55
:1016400039F02F3F19F481E09F3F19F080E001C08D
:1016500081E080FD04C0CE0107960E94D10ADE0120
:10166000119686E0FD0111928A95E9F785E0FE0169
:10167000379601900D928A95E1F749815A816B81E5
:101680007C818D819E810E94ED112B960FB6F8947E
:10169000DEBF0FBECDBFDF91CF910895CF93C82F8E
:1016A000882309F4E0C0823879F40E94D60981FDCC
:1016B000DAC089E30E94D2140E94971589E30E9440
:1016C0000E15CF910C949715833859F40E94D609C2
:1016D00080FDC9C083E50E94D2140E94971583E55E
:1016E000EECF843859F40E94D60982FDBCC087E44D
:1016F0000E94D2140E94971587E4E1CF8CEF8C0FE3
:10170000813A48F48C2F0E940B1B8111ACC08C2FA6
:101710000E94D214D6CF80E28C0F883048F4C77074
:1017200081E001C0880FCA95EAF70E944E15C9CF23
:101730008BE58C0F833078F4C53A39F0C63A41F026
:1017400083E890E0CF910C94F80981E890E0FACF1B
:1017500082E890E0F7CF88E58C0F853108F083C0F0
:10176000C83A09F441C0C93A09F441C0CA3A09F477
:1017700041C0CB3A09F441C0CC3A09F441C0CB3B5B
:1017800009F441C0CC3B09F441C0CD3A09F441C051
:10179000C03B09F441C0CE3A09F441C0CF3A09F444
:1017A00041C0C13B09F441C0C23B09F441C0C33B45
:1017B00009F441C0C43B09F441C0C53B09F441C030
:1017C000C63B09F441C0C73B09F441C0C83B09F41A
:1017D00041C0C93B09F441C0CA3B09F441C080E0A3
:1017E00090E0CF910C940E0A82EE90E0FACF89EE51
:1017F00090E0F7CF8AEE90E0F4CF85EB90E0F1CF68
:1018000086EB90E0EECF83EB90E0EBCF84EB90E0C3
:10181000E8CF87EB90E0E5CF8CEC90E0E2CF8DEC69
:1018200090E0DFCF83E891E0DCCF8AE891E0D9CF88
:1018300082E991E0D6CF84E991E0D3CF81E292E0D2
:10184000D0CF83E292E0CDCF84E292E0CACF85E2AE
:1018500092E0C7CF86E292E0C4CF87E292E0C1CFA8
:101860008AE292E0BECFCF910895882309F44BC05D
:10187000823871F40E94D60981FF45C089E30E9435
:10188000D2140E94971589E30E940E150C949715A7
:10189000833859F40E94D60980FF35C083E50E9441
:1018A000D2140E94971583E5EFCF843859F40E9433
:1018B000D60982FF28C087E40E94D2140E9497159F
:1018C00087E4E2CF9CEF980F913AF0F290E2980F04
:1018D000983050F4877091E001C0990F8A95EAF72B
:1018E000892F0E945415D2CF9BE5980F933020F496
:1018F00080E090E00C94F809885A853120F480E06B
:1019000090E00C940E0A0895882321F00E944E1551
:101910000C9497150895882321F00E9454150C9477
:10192000971508958F929F92AF92BF92DF92EF9298
:10193000FF920F931F93CF93DF937C01D62FC72F76
:10194000FC01058102950F70128111110E946D1525
:101950000E94CB14D82E882371F0112331F180E23C
:101960008D0F883010F182E00E94B4140E94CB14D5
:1019700091E0D82ED926EC2FE295EF708E2F90E0D3
:10198000FC01EB53F34F0C94CA23D70CD70C280D52
:10199000280D600D7E0D9E0E050D890D050D240E82
:1019A000240E950E050D050DBE0ED12CE4CF8C2F07
:1019B000807FCF70882311F0C295C07F1123A9F0DA
:1019C000CC2359F080E28D0F883010F0D11109C07E
:1019D0008C2F0E944E150E9497158D2F0E944E0B42
:1019E00014C08C2F0E945F15F6CF8D2F0E94350CEE
:1019F000CC2359F080E28D0F883010F0D11124C033
:101A00008C2F0E9454150E949715DD2009F4CFC138
:101A10000E94A71480FDCBC1F70112820E94A1147D
:101A20000E949413C7010E94E30E0E94A114DF914B
:101A3000CF911F910F91FF90EF90DF90BF90AF90EB
:101A40009F908F900C94B5138C2F0E946515DBCF5F
:101A50008C2F807FCF70803211F0C295C07FDD2344
:101A600039F0D130F1F0112329F1002329F0B5CF5D
:101A7000112361F0011104C08C2F0E94840CC5CF8A
:101A80008C2F0130D1F70E948115BFCF011106C004
:101A90000E9484158C2F0E948B0CB7CF0130C1F7A8
:101AA000B4CF112321F0023008F0AFCFE5CF011100
:101AB000ACCFF0CF002371F38D2F0E94350CA5CF52
:101AC0008C2F86958695837059F0813009F09DCFD3
:101AD000112389F08D2F9C2F93700E940E0A95CFB1
:101AE000112331F08D2F9C2F93700E94F8098DCF18
:101AF00080E090E0FACF80E090E0EFCF8D2F1123CF
:101B000029F00E94D9170E94C5187FCF0E94411862
:101B1000FACF8C2F837009F048C0111176CF2D2F8A
:101B2000229526952770220F220F6D2F6F70862E1B
:101B3000912CA12CB12C022E04C0880C991CAA1C3B
:101B4000BB1C0A94D2F7D4FF1EC06FE070E080E0A7
:101B500090E004C0660F771F881F991F2A95D2F75F
:101B60006095709580959095C695C695C370C23066
:101B700071F0A0F4682979298A299B29C13091F054
:101B80000E943D1342CF60E070E0CB01EDCF6829A9
:101B900079298A299B290E94591337CF0E943D1326
:101BA000C501B4010E94211330CF1123C9F18C2F3C
:101BB0008170882309F429CF2D2F2295269527702F
:101BC000220F220F6D2F6F70862E912CA12CB12C1D
:101BD000022E04C0880C991CAA1CBB1C0A94D2F7C4
:101BE000D4FF20C06FE070E080E090E004C0660F9A
:101BF000771F881F991F2A95D2F760957095809559
:101C00009095C695C695C370C23081F0B0F468292E
:101C100079298A299B29C130A1F00E941714F5CE99
:101C20008695C7CF60E070E0CB01EBCF68297929BA
:101C30008A299B290E943314E8CE0E941714C501FB
:101C4000B4010E94FB13E1CE8D2F90E0FC01E05E19
:101C5000F109E531F10508F060C0EF5CF14F0C943B
:101C6000CA23460E460E460E460E460E460E460E3B
:101C7000460E460E460E460E460E460E460E460EC4
:101C8000460E530E600E670E6E0E780EDF708C2FB0
:101C90008F71112321F00E9494138D2FEECE0E949C
:101CA000B5138D2FF8CE112339F00111AECE8C2F44
:101CB0008F710E94DA13A9CE023008F0A6CEF7CFBA
:101CC000112339F08C2F8F710E9494139ECE112313
:101CD000C9F38C2F8F710E94B51397CE112329F071
:101CE0008C2F8F710E947F1390CE0E9475138DCE22
:101CF000112349F0CF718C2F0E94941363E08C2F35
:101D00000E94AB1482CE81E00E94B414023008F429
:101D10007CCE82E00E94B41478CE112319F0002307
:101D200089F25BCE0023A9F2C7CE4C2F4F706D2FE6
:101D3000C7010E9478040E949B1267CED23F39F1FE
:101D400060F4D03F99F0D13F51F1002301F18D2F84
:101D5000112351F10E944E0B11C0D43FD9F0A8F0CD
:101D6000D53F99F711110AC081E006C0112331F067
:101D70008091300291E08927809330024C2F4F7080
:101D80006D2FC7010E94AB0740CE81E0182710934A
:101D90003002F4CF1111F2CF10923002EFCF0023B6
:101DA000B1F31111EBCFE4CF0E94350CE7CFDF91F7
:101DB000CF911F910F91FF90EF90DF90BF90AF9068
:101DC0009F908F9008950F931F93CF93DF93EC0113
:101DD000988189812B813C81232B39F08F3F19F425
:101DE00081E09F3F19F080E001C081E080FD13C0D9
:101DF000CE010E942B05882371F0688179818A8148
:101E00000E949D148C010E944F140E941613B80169
:101E1000CE010E94920CDF91CF911F910F910895F6
:101E20000E946D150E947E150E9440150E94971514
:101E30000E9473190E94C51880E090E00E94F80982
:101E400080E090E00C940E0A0E945C150C94100F38
:101E50000E949214E92FE295EF704E2F50E0FA01A4
:101E60003297EE30F105D8F4E85CF04F0C94CA23B9
:101E7000460F460F4F0F4F0F510F4F0F4F0F4F0F82
:101E8000460F460F560F4F0F4F0F560F803F19F05A
:101E900020F4803E20F481E00895843FE1F380E067
:101EA0000895803EC0F3813FD1F7F5CF93FB88279B
:101EB00080F90895CF93DF9300D000D01F92CDB763
:101EC000DEB70F900F900F900F900F90DF91CF9192
:101ED0000895CF93DF9300D000D000D0CDB7DEB708
:101EE00026960FB6F894DEBF0FBECDBFDF91CF911F
:101EF00008951F93CF93DF93C091310216E0809134
:101F00003202C81304C0DF91CF911F910895D0E031
:101F10001C9FF0011D9FF00D1124ED5CFD4F4081D1
:101F2000518162817381848195810E94690F21961C
:101F3000C770E5CF409163025091640260916502E1
:101F40007091660280916702909168020C94690F0B
:101F50001F93CF93DF938091680282958F70D1F4A5
:101F6000809165028823B1F080913102D0913202D4
:101F7000B0916302C0916402409166025091670281
:101F8000A1E0BF3F09F0A0E0BA016095709516E0AE
:101F90008D1304C0DF91CF911F9108954115510514
:101FA000D9F1CF3FD9F120E090E020FD3CC0189F4F
:101FB000F001199FF00D1124ED5CFD4F21812C13D0
:101FC00032C020812B132FC0228121112CC02381EC
:101FD00034812417350720F1241B350B283C3105AB
:101FE00010F5209168022F7020612093680226E08E
:101FF000289FF001299FF00D1124E85CFD4F80819E
:102000008F708061808383E692E00E94E30EDF910F
:10201000CF911F910C94790F21E0C6CF2A2FC4CF06
:10202000260F371FDBCF01968770B2CFAF92BF92DA
:10203000CF92DF92EF92FF920F931F93CF93DF9394
:10204000CDB7DEB761970FB6F894DEBF0FBECDBF38
:102050008C0185E0F801DE011D9601900D928A95B4
:10206000E1F7D8014C9111965C9111971296EC9082
:1020700030916302609164028091660290916702E0
:10208000009739F06F3F19F421E03F3F19F020E04D
:1020900001C021E0B22FB170BB2E20FD90C1F8012C
:1020A000C380D480A0906502AA2009F432C1209197
:1020B0006802C816D90610F1D601A81BB90BCD01CC
:1020C000FF24F394883C9105F0F0F12C207F09F077
:1020D000E9C07C2DD98AC88A6E2D89890E945A0F41
:1020E00083E692E00E94E30EE3E6F2E086E0DF01A1
:1020F0001D928A95E9F70E949A0F1EC080959095CF
:102100008C0D9D1DDDCF822F807F09F084C065136B
:1021100025C0341323C0FE2CE11020C02F70206195
:10212000209368020E949A0F83E692E00E94E30ED9
:1021300080916802F80185838F2D61960FB6F8941F
:10214000DEBF0FBECDBFDF91CF911F910F91FF90EA
:10215000EF90DF90CF90BF90AF900895CD2839F0E9
:102160005F3F19F481E04F3F19F080E001C081E04A
:1021700080FD24C081E08E25F82FF170FF2E80FFB6
:102180003FC0809131022091320236E0821318C0A4
:102190004D875E878D859E850E949214292F2295FA
:1021A0002F70223008F1243030F59F7009F1D801EA
:1021B00015969C91907FE1F4FB2CBECF80E0DCCFA4
:1021C00090E0389FF001399FF00D1124ED5CFD4F38
:1021D0006181561306C06081641303C06281E612F8
:1021E0000FC001968770D2CF9F7011F0882321F322
:1021F000805E883008F3C8010E94E30EBF2CDCCF5C
:10220000FE2CEE2009F498CF8091680281608093C3
:102210006802F12C91CF651314C0341312C0E11081
:1022200010C080916802F8018583C8010E94E30E06
:1022300086E0F801A3E6B2E001900D928A95E1F7FD
:102240005ACF4D875E878D859E850E94280F8823F3
:1022500009F4BFC0EE2009F4BCC020916802822FAF
:1022600082958F7090E0029774F080916302909154
:10227000640298878F831986DB86CA862C87CE01F5
:1022800007960E94E30E86E0F801A3E6B2E0019013
:102290000D928A95E1F70E94A80F0E949A0FFF24E1
:1022A000F3944ACF651314C0341312C0E11010C068
:1022B00080916802F8018583C8010E94E30E86E0E0
:1022C000E3E6F2E0DF011D928A95E9F7FA2C34CFBC
:1022D0004D875E878D859E850E94280F882309F48F
:1022E00078C0EE2009F475C020916802822F829593
:1022F0008F7090E002973CF28091630290916402AB
:102300009A8389831B82DD82CC822E83CE01019643
:10231000B8CFC816D90680F0F601E81BF90BCF013B
:10232000883C910570F0F12C7C2DD98AC88A6E2DDD
:1023300089890E945A0FD8CE809590958C0D9D1D4D
:10234000EFCFFE2CEE2009F444C0651327C03413F0
:1023500025C08091680280FD18C0982F92959F70CB
:10236000292F30E02115310581F0D80115968C9385
:1023700015972F30310509F458CF9F5F9295907FC4
:102380008F70892B15968C9350CF86E0F801A3E6C9
:10239000B2E001900D928A95E1F7CECE4D875E872F
:1023A0008D859E850E94280F81116DCF80916802D6
:1023B000816080936802C8010E94E30EBDCEEE20CA
:1023C00041F04D875E878D859E850E94280F811183
:1023D0005ACFC8010E94E30E62CF1F93CF93DF93C1
:1023E000CDB7DEB72C970FB6F894DEBF0FBECDBFCA
:1023F0004F83588769877A878B879C87CE0107969A
:102400000E941610882349F19F8188852A853B8583
:10241000232B39F08F3F19F481E09F3F19F080E0C2
:1024200001C081E080FD08C04F81588569857A85AB
:102430008B859C850E94690F16E0809131029091F6
:102440003202891348C02C960FB6F894DEBF0FBE37
:10245000CDBFDF91CF911F91089586E0FE013796A1
:10246000DE01119601900D928A95E1F7FF81E885D2
:102470006A857B856115710539F0EF3F19F481E0BC
:10248000FF3F19F080E001C081E080FDD5CF2091B1
:10249000320230E0C90101968770992740913102DC
:1024A00050E084179507C9F1F983EA837D836C8333
:1024B00096E0929FD001939FB00D1124AD5CBD4F6B
:1024C000FE01319601900D929A95E1F780933202C8
:1024D0000E94790FB1CF819FC00111248D5C9D4F67
:1024E0000E941610882309F4AECFE09131021E9F9E
:1024F000F0011124ED5CFD4F4081518162817381B7
:10250000848195810E94690F8091310290E001964B
:10251000877099278093310290CF0E94240F1092E8
:10252000320210923102E3E6F2E086E0DF011D9212
:102530008A95E9F788CFEF92FF920F931F93CF937D
:10254000DF938C01892B81F0F12CEE24E394E801D8
:102550002196F8018491843770F4843008F062C0C9
:102560008130B1F08230B1F1DF91CF911F910F91A5
:10257000FF90EF900895853709F44FC008F43FC0ED
:102580009CE7980F903780F78F770E94350C4CC0EE
:102590000E5F1F4FFE01849190E2980F983060F417
:1025A0008770FE2D01C0FF0F8A95EAF78F2F0E94DA
:1025B00070150E94971502C00E944E0B8F2D882324
:1025C00009F4C5CFEFE9FFE03197F1F700C0000053
:1025D0008150F5CF0E5F1F4FFE01849190E2980F5E
:1025E000983050F48770FE2D01C0FF0F8A95EAF7EE
:1025F0008F2F0E947615DDCF0E94350CDFCF0E5F46
:102600001F4FFE01C491CC23C9F28FE99FE00197CF
:10261000F1F700C00000C150F6CF0E5F1F4FFE0162
:10262000F490CCCF0E944E0B8E01C8CF08956093DA
:102630006D0270936E0280936F02909370020C94FF
:10264000100F0F931F9300916D0210916E02209155
:102650006F0230917002DC01CB01802B912BA22BF9
:10266000B32B80936D0290936E02A0936F02B09390
:1026700070021F910F910C94100F0F931F930091F4
:102680006D0210916E0220916F0230917002DC0198
:10269000CB0180239123A223B32380936D029093D7
:1026A0006E02A0936F02B09370021F910F910C9471
:1026B000100F0F931F9300916D0210916E022091E5
:1026C0006F0230917002DC01CB0180279127A22795
:1026D000B32780936D0290936E02A0936F02B09324
:1026E00070021F910F910C94100F109269021092BA
:1026F0006A0210926B0210926C020C94100F41E06F
:1027000050E060E070E004C0440F551F661F771F63
:102710008A95D2F74093690250936A0260936B02E4
:1027200070936C020C94100F41E050E060E070E098
:1027300004C0440F551F661F771F8A95D2F78091FA
:10274000690290916A02A0916B02B0916C02842B95
:10275000952BA62BB72B8093690290936A02A093C6
:102760006B02B0936C020C94100F41E050E060E0FB
:1027700070E004C0440F551F661F771F8A95D2F77B
:1027800040955095609570958091690290916A028C
:10279000A0916B02B0916C0284239523A623B723EA
:1027A0008093690290936A02A0936B02B0936C02CB
:1027B0000C94100F41E050E060E070E004C0440F62
:1027C000551F661F771F8A95D2F7809169029091F5
:1027D0006A02A0916B02B0916C0284279527A6270C
:1027E000B7278093690290936A02A0936B02B0931B
:1027F0006C020C94100F0F931F93009169021091BB
:102800006A0220916B0230916C02DC01CB01802BBB
:10281000912BA22BB32B8093690290936A02A09311
:102820006B02B0936C021F910F910C94100F0F93D9
:102830001F930091690210916A0220916B023091FE
:102840006C02DC01CB0180239123A223B32380936C
:10285000690290936A02A0936B02B0936C021F917D
:102860000F910C94100F0F931F9300916902109118
:102870006A0220916B0230916C02DC01CB0180274F
:102880009127A227B3278093690290936A02A093AD
:102890006B02B0936C021F910F910C94100F08956E
:1028A000BF92CF92DF92EF92FF920F931F93CF933D
:1028B000DF938C01C0906902D0906A02E0906B02B5
:1028C000F0906C0280916D0290916E02A0916F0267
:1028D000B0917002C82AD92AEA2AFB2ACFE1D0E0B7
:1028E000BC2ED701C6010C2E04C0B695A7959795AE
:1028F00087950A94D2F780FD0EC0219788F7B12CF6
:102900008B2DDF91CF911F910F91FF90EF90DF9072
:10291000CF90BF900895B8018C2F0E941F06019799
:1029200061F3EECFCF93DF93EC010E945014BE0110
:102930000E941F06DF91CF910895CB010E9492144F
:10294000089580917102859585958595089580916A
:1029500071028770089598E0899F90011124622B7D
:10296000609371020C9494132091710280958223DC
:1029700080937102982F977069F430E0482F082EE9
:10298000000C550B2417350729F0859585958595FD
:102990000C94B513089590917102977081E009F439
:1029A00080E00895909114019923D9F09091C90283
:1029B00097FF17C0982F9695969596959F3131F170
:1029C000E0910201F0910301E90FF11D877021E010
:1029D00030E001C0220F8A95EAF78181822B818342
:1029E00008952091020130910301F90132969FEF81
:1029F00040E05191851751F09F3F19F4511101C0EA
:102A0000942F4F5F4E31A9F79F3F09F40895290F86
:102A1000311D97FD3A95F901828308959091140133
:102A20009923E9F09091C90297FF19C0982F9695C4
:102A3000969596959F3119F1E0910201F09103016D
:102A4000E90FF11D282F277081E090E001C0880F69
:102A50002A95EAF7809591818923818308952091B1
:102A6000020130910301F9013296205E3F4F9081BF
:102A7000891301C010823196E217F307C1F7089558
:102A800081E090E0E0910201F0910301E80FF91F6D
:102A90001082019680329105A9F7089590919502D0
:102AA000892B809395020895982F90958091950297
:102AB000892380939502089510929502089590912C
:102AC0009402892B809394020895982F9095809179
:102AD0009402892380939402089510929402089599
:102AE00090919302892B809393020895982F90954B
:102AF0008091930289238093930208951092930208
:102B000008958093720208951092720208952091A0
:102B1000020130910301F9013196205E3F4F80E0C0
:102B2000919191118F5FE217F307D1F70895E0912A
:102B30000201F0910301809195028083E0910201EE
:102B4000F0910301808190919402892B8083E09120
:102B50000201F0910301808190919302892B80837F
:102B600090917202992361F0E0910201F0910301CA
:102B70008081892B80830E948715811110927202B7
:102B800080910201909103010C94E209CF92DF92AF
:102B9000EF92FF926C01EE24FF24C114D104E104F2
:102BA000F10409F440C0C701B60120E1C72ED82EB8
:102BB000E92EFF24C114D104E104F10419F0285FC7
:102BC000C701B6016B017C0154E0F694E794D794F9
:102BD000C7945A95D1F7C114D104E104F10419F056
:102BE0002C5FC701B6016B017C0142E0F694E794CB
:102BF000D794C7944A95D1F7C114D104E104F104E4
:102C000019F02E5FC701B601969587957795679560
:102C1000672B682B692B09F02F5F822FFF90EF90B5
:102C2000DF90CF90089520E0C1CF6DEE7EEF80E081
:102C300090E00E94042460E082E090E00E94F22391
:102C400060E083E090E00E94F22360E084E090E0A6
:102C50000E94F22360E085E090E00C94F22380E093
:102C600090E00E94EC2321E08D3E9E4F09F020E091
:102C7000822F089582E090E00C94E42383E090E0BA
:102C80000C94E42384E090E00C94E423682F84E027
:102C900090E00C94F2238091CF02843039F11092AD
:102CA000970220E488E190E00FB6F894A89580930D
:102CB00060000FBE2093600080E00E941D0683B775
:102CC000817F846083BF83B7816083BF7894889558
:102CD00083B78E7F83BF0FB6F894A895809160006C
:102CE000886180936000109260000FBE089508957F
:102CF000CF930E946D030E9480030E947716C0E06C
:102D00008C2F0E947104811105C0CF5FCE30C1F7B6
:102D1000CF91089581E0FCCF0E94240F0E94D60934
:102D20000C941D061F920F920FB60F9211248F93D1
:102D30009F93AF93BF9380919702811113C08091AD
:102D4000980290919902A0919A02B0919B024196AB
:102D5000A11DB11D8093980290939902A0939A02AD
:102D6000B0939B02BF91AF919F918F910F900FBE37
:102D70000F901F90189582E084BD93E095BD9AEF67
:102D800097BD80936E0008952FB7F89480919802B4
:102D900090919902A0919A02B0919B022FBF089541
:102DA000CF92DF92EF92FF920F931F932FB7F89479
:102DB000409198025091990260919A0270919B0201
:102DC0002FBF6A017B01EE24FF248C0120E030E05C
:102DD000C016D106E206F30650F0481B590BCA0193
:102DE0001F910F91FF90EF90DF90CF900895415089
:102DF0005109F3CF1F920F920FB60F9211248F93A8
:102E00009F93AF93BF938091980290919902A09164
:102E10009A02B0919B020196A11DB11D8093980268
:102E200090939902A0939A02B0939B02BF91AF91A5
:102E30009F918F910F900FBE0F901F9018950E9439
:102E4000871FF8942FEF87EA91E621508040904049
:102E5000E1F700C0000087E090EBDC018093D8022E
:102E60009093D902A093DA02B093DB029CE088E150
:102E70000FB6F894A895809360000FBE9093600001
:102E8000FFCF0E942F16811102C00E9415160E94CA
:102E90003A16809396020E94421690E09093CA02DE
:102EA0008093C9020E943E16682F70E080E090E097
:102EB0000C94171380919E0280FF12C0609107014D
:102EC00085E0689FB00111247595679575956795A4
:102ED00060387105A8F56115710581F581E00895E7
:102EE00081FF09C06091070185E0689FB00111244E
:102EF00075956795EDCF82FF07C06091070185E06A
:102F0000689FB0011124E4CF90919F029923A1F012
:102F100060910601961788F72091070185E0289FA8
:102F200090011124929FA001939F500D112470E0F5
:102F3000CA010E94B623CCCF65E070E0862F0895C9
:102F40008FE7089580919E0280FF0CC0609105017B
:102F500070E075956795759567956115710539F5FB
:102F600081E0089581FF06C06091050170E07595CC
:102F70006795F3CF82FF08C06091050170E060386B
:102F8000710558F38FE7089580919F02882369F0B7
:102F900060910401861780F790910501899FC00117
:102FA000112470E00E94B623EACF61E070E0862F22
:102FB0000895803F31F40E945A1781958093A202B0
:102FC0000895813F19F40E945A17F8CF823F31F4D7
:102FD0000E945A1781958093A1020895833F19F4A6
:102FE0000E945A17F8CF893F29F40E94A2178093B4
:102FF000A30208958A3F21F40E94A2178195F7CF7A
:103000008B3F31F40E94A21781958093A40208950A
:103010008C3F19F40E94A217F8CF843F31F48091BD
:10302000A00281608093A0020895853F21F48091E1
:10303000A0028260F7CF863F21F48091A0028460D5
:10304000F1CF873F21F48091A0028860EBCF883FC9
:1030500021F48091A0028061E5CF8D3F31F4809111
:103060009E02816080939E0208958E3F21F480919C
:103070009E028260F7CF8F3FB9F780919E028460F5
:10308000F1CF803FC1F48091A20287FD1092A2028D
:103090008091A10281110EC08091A20281110AC00B
:1030A0008091A302811106C08091A402811102C007
:1030B00010929F020895813F29F48091A202181670
:1030C0002CF3E6CF9091A102823F29F497FFE0CF45
:1030D0001092A102DDCF833F19F41916CCF3D8CF9B
:1030E000893F39F48091A302181694F61092A30236
:1030F000CFCF8A3F29F48091A30287FFC9CFF6CFB3
:103100008B3F39F48091A40287FFC2CF1092A402B2
:10311000BFCF8C3F29F48091A4021816BCF3B8CF1E
:10312000843F31F48091A0028E7F8093A002B0CFC3
:10313000853F21F48091A0028D7FF7CF863F21F457
:103140008091A0028B7FF1CF873F21F48091A00274
:10315000877FEBCF883F21F48091A0028F7EE5CF5F
:103160008D3F31F480919E028E7F80939E0290CF9E
:103170008E3F21F480919E028D7FF7CF8F3F09F023
:1031800087CF80919E028B7FF0CF80EA92E00E94F1
:10319000ED090E94C41690939D0280939C020895AD
:1031A0001F93CF93DF9380919C0290919D020E9488
:1031B000D016AC0190919F029923D1F02091080183
:1031C00030E04217530780F08091A102C091A20223
:1031D000D091A3021091A402811111C0C1117FC02E
:1031E000D1117DC011117BC0DF91CF911F91089546
:1031F000209109018AE0289F90011124E2CF9F3F8E
:1032000019F09F5F90939F02181624F40E945A179A
:103210008093A1028091A10287FF05C00E945A17E6
:1032200081958093A1021C1624F40E945A17809362
:10323000A2028091A20287FF05C00E945A178195C1
:103240008093A2026091A102662331F1C091A20293
:10325000CC2311F1062E000C770B880B990B0E94E2
:10326000BD2223E333E343E35FE30E9421230E9473
:1032700085226093A1026C2FCC0F770B880B990BE2
:103280000E94BD2223E333E343E35FE30E94212353
:103290000E9485226093A2021D1624F40E94A217A8
:1032A0008093A3028091A30287FF05C00E94A2170A
:1032B00081958093A302111624F40E94A217809393
:1032C000A4028091A40287FF05C00E94A2178195E5
:1032D0008093A402DF91CF911F910C94C5189F3F5A
:1032E00009F08FCFA0CFE0EAF2E085E0DF011D9288
:1032F0008A95E9F710929F0210929E0208958330FA
:1033000081F128F4813059F08230D1F00895853070
:1033100009F449C0B8F1863009F456C00895809187
:103320000901262F30E0280F311D2F3F310524F4ED
:10333000680F6093090108958FEF80930901089544
:1033400080910801262F30E0280F311D2F3F3105D5
:1033500024F4680F6093080108958FEF80930801AB
:10336000089580910701262F30E0280F311D2F3F4F
:10337000310524F4680F6093070108958FEF80935F
:103380000701089580910601262F30E0280F311D96
:103390002F3F310524F4680F6093060108958FEFE5
:1033A00080930601089580910501262F30E0280FB3
:1033B000311D2F3F310524F4680F609305010895F6
:1033C0008FEF80930501089520910401862F90E0EE
:1033D000820F911D8F3F910524F4620F60930401C9
:1033E00008958FEF809304010895833011F128F43C
:1033F000813049F0823091F00895853081F120F1DB
:103400008630C1F1089580910901681720F4861B68
:10341000809309010895109209010895809108018F
:10342000681720F4861B8093080108951092080104
:10343000089580910701681720F4861B8093070187
:10344000089510920701089580910601681720F4ED
:10345000861B8093060108951092060108958091BD
:103460000501681720F4861B8093050108951092CA
:103470000501089580910401681720F4861B80934C
:10348000040108951092040108950F931F9341E0E1
:1034900050E060E070E08A019B0104C0000F111F42
:1034A000221F331F8A95D2F7C901B8010E94171352
:1034B0001F910F910C94240F873208F04CC08E316D
:1034C00008F098C0803109F487C0E0F4873009F42F
:1034D00074C028F4863009F466C080E008958B300B
:1034E00009F45FC08E30C9F78091960282FB99275C
:1034F00090F921E0922790FB82F98093960282FD59
:1035000026C04FC0863109F44CC080F4813129F7C0
:103510000E94240F8091C90287FB992790F921E02E
:10352000922790FB87F98093C9023BC08931C9F18A
:103530008B3199F68091960281FB992790F921E0D1
:10354000922790FB81F98093960281FF2AC0809197
:10355000960281603EC0883321F148F4893229F017
:10356000853319F0873209F0B8CF80E007C0833483
:10357000E1F338F48A3308F4B0CF89530E94451A36
:1035800010C0883409F0A9CF0E94240F2FEF83EDDB
:1035900090E3215080409040E1F700C000000E947D
:1035A0001F1781E0089580919602817F8E7F80931E
:1035B000960281E08093A602089580919602982F4A
:1035C000909590FB80F98093960280FFEACF866009
:1035D000886080939602E5CF8091960283FB9927BD
:1035E00090F921E0922790FB83F98093960283FD66
:1035F000AECFD7CF8D51C2CF80E008950C94FC1A86
:103600008E518A3030F4E82FF0E0E354FE4F808191
:10361000089580E00895CF93C82F8091A60281304D
:10362000E1F038F0823009F43FC01092A60280E049
:1036300012C0E0910201F09103018081813111F00B
:103640008232A9F78C2F0E94FE1A81111DC08C2F87
:103650000E945C1A8170CF910895E0910201F0916F
:1036600003018081813171F3823261F38C2F0E94DA
:10367000FC1A811110C0C43181F048F4CB3059F0EC
:10368000C03171F080E0E6CF81E090E0E3CFC93255
:1036900021F0C833B9F781E0DDCF1092A602F2CF56
:1036A00082E08093A602F7CFC93219F188F4C431C1
:1036B00001F120F4C73081F181E0CDCF82EE8C0F93
:1036C0008630D0F78C2F0E94001B8093A502F4CF88
:1036D000CE3401F120F4CB3479F76AE005C0C1356E
:1036E00099F0C23549F761E08091A5020E947F19E7
:1036F000E3CF8091A502882319F01092A502DCCFB8
:1037000081E08093A602A7CF61E08091A5020E948C
:10371000F519D2CF6AE0F9CF8AE08093090194E1EC
:103720009093080193E0909307018093060188E04D
:103730008093050188E280930401BECF8091C70287
:103740000895CF93DF9300D01F92CDB7DEB79C01D1
:103750008091CF02843019F593E099833B832A83CB
:103760009093E9008FEF9091E800815095FD06C09D
:1037700095ED9A95F1F700008111F5CF8091E80061
:1037800085FF0DC040E050E063E070E0CE0101969F
:103790000E94FA1D8091E8008E778093E8000F90D8
:1037A0000F900F90DF91CF910895CF93DF9300D0CA
:1037B0001F92CDB7DEB72091CF02243021F522E051
:1037C00029839B838A8383E08093E9008FEF909124
:1037D000E800815095FD06C095ED9A95F1F700003F
:1037E0008111F5CF8091E80085FF0DC040E050E0E9
:1037F00063E070E0CE0101960E94FA1D8091E8001E
:103800008E778093E8000F900F900F90DF91CF910B
:1038100008959C018091CF028430F9F482E0809376
:10382000E9009FEF8091E800915085FD06C085ED8D
:103830008A95F1F700009111F5CF8091E80085FF9E
:103840000CC040E050E065E070E0C9010E94FA1D44
:103850008091E8008E778093E8000895CF93DF93FE
:10386000EC018091CF02843071F59091140199237D
:1038700069F19091C90297FF29C08093E9008FEF09
:103880009091E800815095FD06C095E19A95F1F779
:1038900000008111F5CF8091E80085FF14C040E061
:1038A00050E060E270E0CE010E94FA1D8091E800D5
:1038B0008E778093E80080E2FE01A7EAB2E00190F3
:1038C0000D928A95E1F7DF91CF91089581E0809381
:1038D000E9008FEF9091E800815095FD06C095EDCD
:1038E0009A95F1F700008111F5CF8091E80085FFEE
:1038F000EACF40E050E068E070E0D5CF8091CE02A2
:10390000811109C00E94871F0E94E41F8091E2007C
:1039100084608093E20008951092CE020895089585
:1039200008950C948C1642E061EC81E00E94041F23
:1039300042E061EC82E00E94041F42E061EC83E01F
:103940000E94041F42E261EC84E00C94041F809109
:10395000D102833009F455C030F4813071F18230E6
:1039600009F491C008958A3009F47DC08B3009F4C0
:1039700063C0893009F044C08091D002813209F0DF
:103980003FC08091D4029091D502009711F0039727
:10399000B9F58091E800877F8093E8008091E80086
:1039A00082FF2AC08091F1008093C7028091E800D5
:1039B0008B778093E8000C94391F8091D002813A74
:1039C000F9F48091E800877F8093E8008091D40229
:1039D0009091D502892B61F460E287EA92E070E071
:1039E0000E94491E8091E8008B778093E80008953B
:1039F00060E080E090E0F3CF8091CF028111CECFE4
:103A000008958091D002813AD9F78091D4029091A3
:103A1000D502892BA9F78091E800877F8093E80081
:103A20008091E80080FFFCCF809114018093F10029
:103A30008091E8008E77BDCF8091D002813201F76E
:103A40008091D4029091D502892BD1F68091E80023
:103A5000877F8093E8000E94391F8091D202809373
:103A600014010C94240F8091D002813249F6809188
:103A7000E800877F8093E8000E94391F8091D3027D
:103A80008093C80208958091D002813A09F0B8CF9E
:103A90008091E800877F8093E8008091E80080FFB4
:103AA000FCCF8091C802C2CF84B7877F84BF0FB696
:103AB000F894A895809160008861809360001092CE
:103AC00060000FBE80E880936100109261000E9448
:103AD000250A0E94871F0E94E41F8091E2008460F3
:103AE0008093E20078940E9469220E94270A8AE06B
:103AF00091E00E94D1098091CF02853019F00E9497
:103B00002D0AF9CF0E944B168091CD02882399F39C
:103B10000E947816882379F30E94E41DECCF292FA8
:103B200033272330310579F158F421303105F1F094
:103B30002230310519F180E090E020E030E01AC039
:103B40002132310599F122323105A9F7643098F715
:103B500070E0FB01EE0FFF1FE553FE4F2081318126
:103B600069537E4FFB01808190E004C082E190E0C8
:103B700029E134E0FA013183208308958DE690E055
:103B80002CEA33E0F7CF99278130910561F028F0D6
:103B9000029789F6E8E7F3E002C0E8EAF3E08491EF
:103BA00090E09F01E7CFE0E9F3E0F9CF643008F05F
:103BB000C2CFE62FF0E0EE0FFF1FED52FE4F208147
:103BC000318189E090E0D6CF80E189BD82E189BD75
:103BD00009B400FEFDCF8091D8008F7D8093D8007E
:103BE0008091E00082608093E0008091E00081FDA0
:103BF000FCCF0895AF92BF92DF92EF92FF920F93A6
:103C00001F93CF93DF93EC018B017A010E94581F21
:103C1000D82E811124C0E114F10439F0F70180811C
:103C20009181081B190BC80FD91FA12CB12C0115AC
:103C30001105A9F08091E80085FD22C08091E8007F
:103C40008E778093E800E114F104A1F0F701808100
:103C50009181A80EB91EB182A08285E0D82E8D2D4B
:103C6000DF91CF911F910F91FF90EF90DF90BF9068
:103C7000AF9008950E94581F8823C9F2D82EEFCF25
:103C800089918093F10001501109FFEFAF1ABF0A2B
:103C9000CECF2091D6023091D70226173707A8F051
:103CA0006115710529F42091E8002E772093E80032
:103CB000FC0120E06115710551F4211108C08091CB
:103CC000E80082FF33C080E00895B901F1CF809110
:103CD000CF028823B9F18530B9F18091E80083FDE6
:103CE0002FC08091E80082FDEACF8091E80080FF3C
:103CF000E1CF2091F3008091F20090E0922B6115CA
:103D0000710519F08830910550F021E0089709F00D
:103D100020E08091E8008E778093E800CBCF21915E
:103D20002093F100615071090196E9CF8091CF0293
:103D3000882341F0853041F08091E80083FFBFCFB8
:103D400081E0089582E0089583E008952091D602ED
:103D50003091D70226173707A8F06115710529F4AD
:103D60002091E8002E772093E800FC0120E0611507
:103D7000710551F4211108C08091E80082FF34C020
:103D800080E00895B901F1CF8091CF028823C1F17D
:103D90008530C1F18091E80083FD30C08091E8005A
:103DA00082FDEACF8091E80080FFE1CF2091F3000F
:103DB0008091F20090E0922B6115710519F0883026
:103DC000910550F021E0089709F020E08091E8008B
:103DD0008E778093E800CBCF24912093F100319629
:103DE000615071090196E8CF8091CF02882341F09C
:103DF000853041F08091E80083FFBECF81E00895D7
:103E000082E0089583E00895982F973028F08F700E
:103E10008093E90081E008959093E900981751F0AC
:103E20007091EC002091ED005091F00021FD06C052
:103E30009F5FEBCF242F762F50E0F8CF3091EB002F
:103E40003E7F3093EB003091ED003D7F3093ED00ED
:103E50003091EB0031603093EB007093EC002093D5
:103E6000ED005093F0002091EE0027FDE1CF80E0BF
:103E700008958091D00287FF13C08091E80082FFEF
:103E800006C08091E8008B778093E80004C08091A1
:103E9000CF028111F2CF08958091CF028823D9F308
:103EA0008091E80080FFF8CF8091E8008E77ECCF1A
:103EB0002091E4003091E50085E69091EC0090FDC2
:103EC00020C09091E80092FD20C09091CF029923EC
:103ED00091F0953091F09091EB0095FD10C04091DC
:103EE000E4005091E5004217530739F381509A01DD
:103EF00021F784E0089582E0089583E0089581E049
:103F000008959091E80090FFE0CF80E008950E942E
:103F1000F51F0E94FD1FE0EEF0E08081816080834C
:103F2000E8EDF0E080818F77808319BCA7EDB0E0E9
:103F30008C918E7F8C9380818F7E80831092CE02B5
:103F400008950F931F93CF93DF930E94F51F0E9454
:103F5000FD1FC8EDD0E088818F77888388818068D5
:103F6000888388818F7D888319BC1092CF0210923C
:103F7000CB021092CD021092CC0200EE10E0F801BC
:103F800080818B7F808388818160888342E060E0CC
:103F900080E00E94041FE1EEF0E080818E7F80834C
:103FA000E2EEF0E0808181608083808188608083A0
:103FB000F80180818E7F8083888180618883DF9192
:103FC000CF911F910F910895E8EDF0E080818F7EF1
:103FD0008083E7EDF0E080818160808384E082BFB0
:103FE00081E08093CE020C94A11FE8EDF0E0808187
:103FF0008E7F80831092E20008951092DA00109272
:10400000E10008951F920F920FB60F9211242F9383
:104010003F934F935F936F937F938F939F93AF9350
:10402000BF93EF93FF938091E10082FF0BC08091DB
:10403000E20082FF07C08091E1008B7F8093E10066
:104040000E9468228091DA0080FF19C08091D80018
:1040500080FF15C08091DA008E7F8093DA00809116
:10406000D90080FF94C080E189BD82E189BD09B497
:1040700000FEFDCF81E08093CF020E947E1C8091E4
:10408000E10080FF19C08091E20080FF15C080919F
:10409000E2008E7F8093E2008091E2008061809355
:1040A000E2008091D80080628093D80019BC85E03E
:1040B0008093CF020E94901C8091E10084FF29C070
:1040C0008091E20084FF25C080E189BD82E189BD45
:1040D00009B400FEFDCF8091D8008F7D8093D80079
:1040E0008091E1008F7E8093E1008091E2008F7EDD
:1040F0008093E2008091E20081608093E2008091F1
:10410000CB02882309F449C084E08093CF020E9447
:10411000911C8091E10083FF29C08091E20083FF20
:1041200025C08091E100877F8093E10082E0809349
:10413000CF021092CB028091E1008E7F8093E1004C
:104140008091E2008E7F8093E2008091E2008061A6
:104150008093E20042E060E080E00E94041F8091D2
:10416000F00088608093F0000E948F1CFF91EF9117
:10417000BF91AF919F918F917F916F915F914F917F
:104180003F912F910F900FBE0F901F90189519BC63
:104190001092CF020E948C1C72CF8091E30087FDA9
:1041A00002C081E0B2CF83E0B0CF1F920F920FB672
:1041B0000F9211242F933F934F935F936F937F93AD
:1041C0008F939F93AF93BF93CF93EF93FF93C09140
:1041D000E900CF708091EC001092E9008091F0002E
:1041E000877F8093F00078940E9411211092E9005B
:1041F0008091F00088608093F000C093E900FF9107
:10420000EF91CF91BF91AF919F918F917F916F91DE
:104210005F914F913F912F910F900FBE0F901F9084
:1042200018951F93CF93DF93CDB7DEB7AA970FB63C
:10423000F894DEBF0FBECDBFE0EDF2E08091F1005B
:10424000819322E0E83DF207C9F70E94A71C809104
:10425000E80083FF44C08091D0029091D102492FA1
:1042600050E04A30510508F03AC0FA01E65CFE4DD4
:104270000C94CA23442168216F2168216F21C32136
:10428000E6216F213B224822803879F0823839F5C7
:104290008091D4028F708093E9008091EB0085FBC0
:1042A000882780F91092E90006C08091CC02909195
:1042B000CD02911182609091E800977F9093E80081
:1042C0008093F1001092F1008091E8008E772DC06C
:1042D000282F2D7F21F48823D1F0823059F180914D
:1042E000E80083FF0AC08091E800877F8093E800A0
:1042F0008091EB0080628093EB00AA960FB6F89451
:10430000DEBF0FBECDBFDF91CF911F910895809189
:10431000D202813021F7933009F080E08093CD0202
:104320001092E9008091E800877F8093E8000E9466
:10433000391FD5CF8091D2028111F2CF8091D40262
:104340008F7069F28093E9002091EB0020FFE8CFA5
:10435000933031F48091EB0080628093EB00E0CFEA
:104360009091EB0090619093EB0021E030E001C070
:10437000220F8A95EAF72093EA001092EA008091D2
:10438000EB008860EACF8111AACF1091D2021F778B
:104390008091E3008078812B8093E3008091E80096
:1043A000877F8093E8000E94391F8091E80080FF9A
:1043B000FCCF8091E30080688093E300111104C07A
:1043C00082E08093CF028BCF83E0FBCF8058823096
:1043D00008F085CF8091D2029091D3028C3D23E0EA
:1043E0009207A1F583E08A838AE289834FB7F89424
:1043F000DE01139620E03EE051E2E32FF0E050931F
:104400005700E49120FF03C0E295EF703F5FEF702B
:104410008E2F90E0EA30C0F0C7968D939D932F5F6A
:10442000243159F74FBF8091E800877F8093E800DF
:104430006AE270E0CE0101960E94491E8091E80078
:104440008B778093E8004BCFC096E7CFAE014F5FEC
:104450005F4F6091D4020E948F1DBC01892B09F42B
:104460003ECF9091E800977F9093E80089819A81F0
:104470000E94A61EE3CF803809F031CF8091E8007A
:10448000877F8093E8008091CB028093F1001CCF5E
:10449000811125CF9091D202923008F020CF8091E7
:1044A000E800877F8093E8009093CB020E94391F39
:1044B0008091CB02882311F084E005C08091E30055
:1044C00087FDFACF81E08093CF020E94931C07CF33
:1044D0000895CF938091CF02882399F0C091E9008D
:1044E000CF708091EC0080FD0EC080E0C82B109250
:1044F000E9008091E80083FD0E941121CF70C093F4
:10450000E900CF91089580E8F1CF0E948C22689451
:10451000B1110C941B2308950E94002388F09F572B
:1045200098F0B92F9927B751B0F0E1F0660F771FD7
:10453000881F991F1AF0BA95C9F714C0B13091F0CD
:104540000E941A23B1E008950C941A23672F782F44
:104550008827B85F39F0B93FCCF386957795679592
:10456000B395D9F73EF490958095709561957F4FFE
:104570008F4F9F4F0895E89409C097FB3EF49095A4
:104580008095709561957F4F8F4F9F4F9923A9F02C
:10459000F92F96E9BB279395F695879577956795BB
:1045A000B795F111F8CFFAF4BB0F11F460FF1BC0FF
:1045B0006F5F7F4F8F4F9F4F16C0882311F096E992
:1045C00011C0772321F09EE8872F762F05C0662340
:1045D00071F096E8862F70E060E02AF09A95660FF9
:1045E000771F881FDAF7880F9695879597F90895B2
:1045F00057FD9058440F551F59F05F3F71F0479594
:10460000880F97FB991F61F09F3F79F08795089578
:10461000121613061406551FF2CF4695F1DF08C097
:10462000161617061806991FF1CF869571056105B4
:1046300008940895E894BB2766277727CB0197F95C
:1046400008950E9434230C94A5230E94972338F0E8
:104650000E949E2320F0952311F00C948E230C943D
:10466000942311240C941B230E94F82270F3959F2D
:10467000C1F3950F50E0551F629FF001729FBB2759
:10468000F00DB11D639FAA27F00DB11DAA1F649FF5
:104690006627B00DA11D661F829F2227B00DA11DA8
:1046A000621F739FB00DA11D621F839FA00D611D2E
:1046B000221F749F3327A00D611D231F849F600D4F
:1046C000211D822F762F6A2F11249F5750409AF078
:1046D000F1F088234AF0EE0FFF1FBB1F661F771F04
:1046E000881F91505040A9F79E3F510580F00C94CF
:1046F0008E230C941B235F3FE4F3983ED4F38695FE
:1047000077956795B795F795E7959F5FC1F7FE2B6E
:10471000880F911D9695879597F9089597F99F674A
:1047200080E870E060E008959FEF80EC0895002439
:104730000A941616170618060906089500240A9406
:1047400012161306140605060895092E0394000C8C
:1047500011F4882352F0BB0F40F4BF2B11F460FF1B
:1047600004C06F5F7F4F8F4F9F4F089597FB072EB9
:1047700016F4009407D077FD09D00E94D02307FCDF
:1047800005D03EF4909581959F4F08957095619561
:104790007F4F0895EE0FFF1F0590F491E02D0994CF
:1047A000AA1BBB1B51E107C0AA1FBB1FA617B70757
:1047B00010F0A61BB70B881F991F5A95A9F7809573
:1047C0009095BC01CD010895F999FECF92BD81BDB0
:1047D000F89A992780B50895A8E1B0E042E050E04A
:1047E0000C940C24262FF999FECF92BD81BDF89A26
:1047F000019700B4021639F01FBA20BD0FB6F89425
:10480000FA9AF99A0FBE08950196272F0E94F32372
:104810000C94F223DC01CB01FC01F999FECF06C018
:10482000F2BDE1BDF89A319600B40D92415050406E
:08483000B8F70895F894FFCFDA
:104838000520730228080A03140A9E1B2E1C091C53
:10484800D51BA11B01000D010D020D030D040D0563
:104858000D000C010C020C030C040C050C000B01E0
:104868000B020B030B040B050B000A010A020A03D7
:104878000A040A050A0009010902090309040905CD
:1048880009000801080208030804080508000701D0
:1048980007020703070407050700060106020603C7
:1048A80006040605060005010502050305040505BD
:1048B80005000401040204030404040504000301C0
:1048C80003020303030403050300020102020203B7
:1048D80002040205020001010102010301040105AD
:1048E80001000001000200030004000500010203AA
:1048F80004050607080900404D3639E7049A0464A0
:0C490800042B04BE03D703F003090400D5
:00000001FF
